:100000000C94AB000C94D3000C94D3000C946603B6
:100010000C9490030C94BA030C94D3000C94D3006A
:100020000C94D3000C94D3000C94D3000C94D30004
:100030000C94D3000C94D3000C94D3000C94D300F4
:100040000C94FD0E0C94D3000C947C0A0C94C30AFF
:100050000C94D3000C94D3000C94D3000C94D300D4
:100060000C94D3000C94D30000C2010001001100D5
:1000700011000C0000E100000A002500250021000D
:10008000009600001900390039003600127A00008D
:100090001F004600460044008070000022004D0012
:1000A0004D004A00004B00003600750075007200DC
:1000B000403800004A009C009C0099008025000008
:1000C0007200EC00EC00E900C0120000E900DA0167
:1000D000DA01D70160090000D701B603B603B30304
:1000E000B0040000B3036E076E076B072C0100001D
:1000F000DC0EC11DC11DBE1D000000002400270034
:100100002A0000000000250028002B00000000004D
:100110002300260029000404040404040404020249
:100120000202020203030303030301020408102076
:100130004080010204081020010204081020000081
:100140000007000201000003040600000000000098
:1001500000007209290C11241FBECFEFD8E0DEBFCA
:10016000CDBF11E0A0E0B1E0ECEFF2E202C00590FB
:100170000D92A63BB107D9F713E0A6EBB1E001C0A1
:100180001D92A43AB107E1F711E0C6E5D1E004C041
:100190002297FE010E944111C235D107C9F70E9482
:1001A000EB0E0C947C110C940000CF93DF93BC01F8
:1001B0008230910510F462E070E0A091A203B0914A
:1001C000A303ED01E0E0F0E040E050E021C08881D1
:1001D00099818617970769F48A819B81309719F076
:1001E0009383828304C09093A3038093A203FE01B0
:1001F00034C06817790738F44115510519F0841790
:10020000950708F4AC01FE018A819B819C01E901FC
:100210002097E9F641155105A9F1CA01861B970BF4
:10022000049708F4BA01E0E0F0E02AC08D919C91B7
:10023000119784179507F9F46417750781F41296DE
:100240008D919C911397309719F09383828304C00A
:100250009093A3038093A203FD0132964CC0CA0180
:10026000861B970BFD01E80FF91F619371930297AD
:100270008D939C9340C0FD01828193819C01D901A3
:100280001097A1F68091A0039091A103892B41F4CE
:1002900080917C0190917D019093A1038093A003B4
:1002A00040917E0150917F014115510541F44DB7B8
:1002B0005EB780917A0190917B01481B590B209188
:1002C000A0033091A103CA01821B930B86179707E5
:1002D00080F0AB014E5F5F4F8417950750F0420FDF
:1002E000531F5093A1034093A003F90161937193AD
:1002F00002C0E0E0F0E0CF01DF91CF910895CF930D
:10030000DF93009709F450C0EC0122971B821A82F8
:10031000A091A203B091A303109709F140E050E02F
:10032000AC17BD0708F1BB83AA83FE01219131916F
:10033000E20FF31FAE17BF0779F48D919C911197CF
:10034000280F391F2E5F3F4F3983288312968D91D6
:100350009C9113979B838A834115510571F4D09327
:10036000A303C093A20320C012968D919C91139772
:10037000AD01009711F0DC01D3CFFA01D383C28322
:1003800021913191E20FF31FCE17DF0769F48881C5
:100390009981280F391F2E5F3F4FFA013183208347
:1003A0008A819B8193838283DF91CF910895A0E01E
:1003B000B0E0EDEDF1E00C9447116C01009729F4E9
:1003C000CB010E94D5006C01C1C08EEF882E8FEF4B
:1003D000982E8C0C9D1C8601060F171F08151905F9
:1003E00008F4B2C0F401A081B181A617B707B8F034
:1003F000A530B10508F4AAC0CD0104978617970768
:1004000008F4A4C01297A61BB70BF801A193B193EF
:10041000D4016D937C93CF010E947F0197C07B0133
:10042000EA1AFB0AEEEFFFEFEE0EFF1E36016A0E30
:100430007B1EC091A203D091A30344245524AA2477
:10044000BB244AC0C615D705E1F5488159814E1530
:100450005F05B8F1CA0104978E159F05B0F4129696
:10046000A40FB51FF401B183A0832A813B814114FD
:10047000510431F0D20113963C932E93129766C02B
:100480003093A3032093A20361C08A819B81F8016A
:1004900093838283425050404E195F0951834083B9
:1004A0004114510431F0D20113961C930E9312970C
:1004B00004C01093A3030093A203F401718360832B
:1004C00045C088819981A816B90608F45C012E01FF
:1004D0008A819B819C01E901209709F0B3CF80912B
:1004E000A0039091A10386159705E9F4A616B70617
:1004F000D0F420917E0130917F012115310541F426
:100500002DB73EB780917A0190917B01281B390B62
:1005100002171307C8F41093A1030093A003D4019A
:100520006D937C9313C0CB010E94D500EC01009722
:1005300059F0F40140815181B6010E94AC02C6011C
:100540000E947F016E0102C0CC24DD24C601CDB71C
:10055000DEB7E0E10C946311FB01DC0102C0019005
:100560000D9241505040D8F70895FB01DC010190F5
:100570000D920020E1F70895FB01DC01415050404D
:1005800048F001900D920020C9F701C01D92415022
:100590005040E0F70895FB019F01E8944230C4F019
:1005A0004532B4F44A3029F497FB1EF490958195B6
:1005B0009F4F642F77270E942B11805D8A330CF0A8
:1005C000895D8193CB010097A1F716F45DE2519309
:1005D0001082C9010C94EC02DC01FC01672F7191BF
:1005E0007723E1F7329704C07C916D937083629119
:1005F000AE17BF07C8F308950F931F93CF93DF93F0
:10060000FC01738D76957170A685B78595857723E6
:1006100029F08C91892309F454C004C08C9189235A
:1006200009F04FC08389948920E001972FEF8F3F15
:100630009207D9F7C589D689A685B785158560E063
:1006400031E040E050E000E0CE01202F01972FEF95
:100650008F3F9207D9F78C91812311F0632B03C050
:10066000832F80956823330F4F5F5F4F48305105CC
:1006700059F78789908D20E001972FEF8F3F9207E0
:10068000D9F7711160958091F8012091F90190E0FE
:1006900001968F73907030E08217930779F0E091A4
:1006A000F801F0E0E854FE4F60838091F80190E09B
:1006B00001968F7390708093F80103C0838D8160E1
:1006C000838FDF91CF911F910F9108951F920F9209
:1006D0000FB60F9211242F933F934F935F936F9315
:1006E0007F938F939F93AF93BF93EF93FF938091EB
:1006F000B6019091B701009711F00E94FC02FF91A2
:10070000EF91BF91AF919F918F917F916F915F9189
:100710004F913F912F910F900FBE0F901F90189502
:100720001F920F920FB60F9211242F933F934F9366
:100730005F936F937F938F939F93AF93BF93EF9349
:10074000FF938091B6019091B701009711F00E943C
:10075000FC02FF91EF91BF91AF919F918F917F919B
:100760006F915F914F913F912F910F900FBE0F901E
:100770001F9018951F920F920FB60F9211242F936E
:100780003F934F935F936F937F938F939F93AF9319
:10079000BF93EF93FF938091B6019091B7010097BB
:1007A00011F00E94FC02FF91EF91BF91AF919F91D8
:1007B0008F917F916F915F914F913F912F910F900A
:1007C0000FBE0F901F901895CF92DF92EF92FF927D
:1007D0000F931F93CF93DF93EC017A018B011A8E55
:1007E000198E188E1F8A1E8A1D8A1C8A1B8A20E079
:1007F00030E06901CC0CDD1CC20ED31EB601660FC1
:10080000771F660F771FAB0148595F4FFA0185913B
:100810009591A591B4918E159F05A007B107E9F4B4
:10082000FB01E459FF4F859194919C8B8B8BFB01CD
:10083000E259FF4F859194919E8B8D8BFB01E0597E
:10084000FF4F85919491988F8F8BFB01EE58FF4F4E
:10085000859194919A8F898F06C02F5F3F4F2C30DE
:10086000310509F0C6CF8F89988D892B09F449C0CD
:100870004C85463108F03DC090916800483010F436
:1008800084E005C04E3010F082E001C081E0892B89
:1008900080936800483028F4EDE6F0E0ADE6B0E083
:1008A0000BC04E3028F0ECE6F0E0ACE6B0E004C05F
:1008B000EBE6F0E0ABE6B0E05081483040F481E098
:1008C00090E002C0880F991F4A95E2F710C0242FCC
:1008D00030E04E3018F42850304002C02E503040E6
:1008E00081E090E002C0880F991F2A95E2F7852BDE
:1008F0008C93898D9A8D20E001972FEF8F3F92077F
:10090000D9F78091B6019091B7018C179D0781F0BE
:100910008B8D8E7F8B8F9FB7F8941092F80180910A
:10092000F8018093F901D093B701C093B6019FBF3E
:10093000DF91CF911F910F91FF90EF90DF90CF90BB
:1009400008952091B6013091B7012817390731F485
:100950009091F9018091F801981719F42FEF3FEF6A
:100960000FC0E091F901F0E0E854FE4F2081809142
:10097000F90190E001968F7390708093F90130E057
:10098000C90108952091B6013091B70128173907A0
:1009900019F020E030E00EC08091F8012091F901BB
:1009A00090E0805C9F4F821B910960E470E00E94A0
:1009B000F6109C01C90108950F931F93DC0159960D
:1009C0008D919C915A97892B49F481E090E0139680
:1009D0009C938E93129720E030E097C00FB7F89465
:1009E0005B968C915B975196ED91FC915297509646
:1009F0002C91509781FF8DC08081822B80835996E6
:100A00008D919C915A97059620E001972FEF8F3F8B
:100A10009207D9F75B968C915B9781FF35C031E0E7
:100A200040E050E070E010E0832F90E086239723B1
:100A30005196ED91FC91529750962C915097892B9D
:100A400029F0808120952823208303C08081822B78
:100A5000808359968D919C915A97212F01972FEF62
:100A60008F3F9207D9F7330F4F5F5F4F48305105E3
:100A7000D9F65196ED91FC915297908150968C91B8
:100A800050978095892333C031E040E050E070E01A
:100A900010E0832F90E0862397235196ED91FC91EF
:100AA000529750962C915097892B21F08081822B60
:100AB000808304C0808120952823208359968D91BE
:100AC0009C915A97212F01972FEF8F3F9207D9F7CB
:100AD000330F4F5F5F4F48305105D9F65196ED9176
:100AE000FC915297808150969C915097892B8083DE
:100AF0000FBF59968D919C915A9720E001972FEF47
:100B00008F3F9207D9F721E030E0C9011F910F9183
:100B10000895808120952823208371CF2091B601EC
:100B20003091B7012817390749F49FB7F89410920C
:100B3000F8018091F8018093F9019FBF08952091F9
:100B4000B6013091B7012817390731F49091F901B6
:100B50008091F801981719F42FEF3FEF0AC0E09148
:100B6000F901F0E0E854FE4F8081282F332727FD5C
:100B70003095C90108951F93CF93DF93EC01162F91
:100B8000862F60E00E94F10F8B8D81FD04C0812FC4
:100B900061E00E9430101C87212F30E0C901865D82
:100BA0009E4FFC0184918D872A5E3E4FF90164912E
:100BB000E62FF0E0EE0FFF1FE45FFE4F859194916A
:100BC0009F878E87DF91CF911F910895FF920F939A
:100BD0001F938C01F62E862F61E00E94F10F8F2D5E
:100BE00061E00E9430108F2D90E0FC01E65DFE4F29
:100BF000E491D8015096EC9350978A5E9E4FFC0189
:100C00006491E62FF0E0EE0FFF1FEE5FFE4F85913F
:100C1000949152969C938E9351971F910F91FF90B0
:100C20000895FF920F931F938C01F62EFC011382FF
:100C3000128288EE93E0A0E0B0E084839583A683DF
:100C4000B7838EE891E091838083148A138A168A91
:100C5000158A108E178A128E118E838D2170220FA5
:100C60008C7F822B838FC801642F0E94E605C80108
:100C70006F2D0E94BB051F910F91FF90089508955D
:100C8000DC011496ED91FC911597A081B181149629
:100C90002D913C911597CF01F901099520E004971A
:100CA0000CF021E0822F0895EF92FF920F931F9393
:100CB000CF93DF938C01EC0184E0E82EF12CE00E61
:100CC000F11ED8011496ED91FC911597A081B18188
:100CD00016962D913C911797CF01F90109958B87B5
:100CE0002196CE15DF0569F7DF91CF911F910F9106
:100CF000FF90EF900895CF92DF92FF920F931F9392
:100D0000CF93DF936C018B01FF24C0E0D0E0F601AC
:100D1000A481B581ED91FC9111970190F081E02DB6
:100D2000CD01D8016C910995F80181918F01F80EE0
:100D30002196C330D10559F7D6011496ED91FC9157
:100D40001597A081B1812D913C91CF016F2DF901B3
:100D50000995DF91CF911F910F91FF90DF90CF9078
:100D600008958F929F92AF92BF92CF92DF92EF92AF
:100D7000FF920F931F937C01962E842E58016901D8
:100D8000FC011186128687E1868310868EE18783B7
:100D900088EC878713861486158616868CE190E08A
:100DA0000E94FA0E182F092F692D482D20E00E946D
:100DB0001106F70114830583812F902FB601A50139
:100DC0000E94E4031F910F91FF90EF90DF90CF906E
:100DD000BF90AF909F908F900895CF93DF93EC01D9
:100DE0008A85882319F48985882381F00E94450F1C
:100DF00028813981621B730B8F8590E086179707D6
:100E00002CF0872F881F8827881F01C081E0DF9181
:100E1000CF9108950F931F93CF93DF93EC018B0134
:100E20000E944006882311F484E042C0CE010E9453
:100E3000ED06882311F085E03BC0CE010E945406E8
:100E40008B858131C9F0823269F519864C858D8593
:100E5000282F30E0842F90E0822393238F3F910549
:100E600031F18FEF489FC0011124820F931FF801C9
:100E70009183808381E01CC01A864D85242F30E049
:100E80008C8590E0282339232F3F310581F04423BE
:100E900021F4F8011182108203C0F801408311820D
:100EA00082E006C01A861986F8011182108283E05A
:100EB000DF91CF911F910F910895FF920F931F9390
:100EC000DF93CF9300D00F92CDB7DEB78C01F62E13
:100ED0000E94ED06882389F10E94450FF801608386
:100EE000718382839383DE011196EAE9F1E083E066
:100EF00001900D928150E1F7F1E0FF1679F082E068
:100F0000F816D9F481E18983C801BE016F5F7F4F74
:100F10000E947B0681E0F801828710C082E289830B
:100F2000F80186818A83C801BE016F5F7F4F0E94EE
:100F30007B06F801F18681E001C080E00F900F9000
:100F40000F90CF91DF911F910F91FF9008950F9314
:100F50001F93CF93DF93EC018A010E945D078823E2
:100F600011F484E015C0CE010E94ED068823A9F497
:100F7000CE010E944006882381F46AE070E080E0A0
:100F800090E00E94530FEFCFCE01B8010E940A07F4
:100F9000DF91CF911F910F910895CE010E94ED0630
:100FA000882391F385E0F4CFFC011382128281EA59
:100FB00091E091838083E55BFF4F1082EB54F0401A
:100FC000DF01AE51BF4F11961C921E92EC51FF4FA4
:100FD0008EE190E091838083EA59F04082E1808342
:100FE000329783E180838BE1829332968BE3808317
:100FF00034971182108237968D919C91119781932D
:101000009193EA17FB07C1F70895DF92EF92FF92E1
:101010000F931F938C01D62E88E7E82E83E0F82EDD
:10102000065B1F4FC701F80160810E94A30CC70136
:101030006D2D4AE050E00E94520D02501040C70151
:10104000F80160810E94A30C1F910F91FF90EF9017
:10105000DF90089588E793E04AE050E00E94520D47
:101060000895CF92DF92EF92FF920F931F938C011E
:101070006B0198E7E92E93E0F92E065B1F4FC7013D
:10108000F80160810E94A30CC701B6010E94640DA3
:1010900002501040C701F80160810E94A30C1F910B
:1010A0000F91FF90EF90DF90CF900895CF92DF9255
:1010B000FF920F931F93CF93DF93EC01FD80EF2DF1
:1010C000F0E0EB37F105D4F53A97EE0FFF1FE80F8C
:1010D000F91F008111810115110569F18C818130A1
:1010E000E9F1FE01EB5BFF4F81E090E091838083AB
:1010F000DE0141E050E0BE01675B7F4F6F0115C02C
:1011000016962C91169730E0FB018081992787FD78
:1011100090952817390731F4F60180819181019665
:10112000918380834F5F5F4F11968C8190E04817C9
:10113000590734F33FC060E071E047C0C55BDF4F43
:101140008881CB54D0408823E9F1CE51DF4F08810C
:101150001981C25ED0408C81813019F460E070E06A
:101160002DC0FE01EB5BFF4F81E090E09183808317
:10117000DE0141E050E0BE01675B7F4F6F0115C0AB
:1011800016962C91169730E0FB018081992787FDF8
:1011900090952817390731F4F601808191810196E5
:1011A000918380834F5F5F4F11968C8190E0481749
:1011B000590734F3CB5BDF4F688179818F2DF801BC
:1011C000099509C0CE0166E171E00E943108CE01A7
:1011D0006D810E940508DF91CF911F910F91FF90C3
:1011E000DF90CF900895AF92BF92CF92DF92EF92AF
:1011F000FF920F931F93CF93DF93EC0137E4A32E5D
:10120000B12CA80EB91E28E4C22ED12CC80ED91EAE
:101210008C010B5B1F4F94EEE92EF12CEC0EFD1EA2
:1012200037C088E793E00E94B50B482F282F30E0A5
:10123000F5018081992787FD90952817390741F49A
:10124000FE0180E015828F5F31968034D9F712C09D
:10125000F6018081992787FD90952817390779F441
:10126000CE010E945608FE0180E015828F5F319604
:101270008034D9F71C82F8011182108209C08C8158
:10128000803420F5FE01E80FF11D45838F5F8C83CC
:1012900088E793E00E94840B1816190614F288E779
:1012A00093E00E94840B1816190694F3F7018081CD
:1012B0009181009711F00E94AC0F88E793E00E94A3
:1012C000840B1816190624F381E001C080E0DF9139
:1012D000CF911F910F91FF90EF90DF90CF90BF9033
:1012E000AF9008958AEF91E00E94D40780EE92E0DB
:1012F0000E943F060895DF93CF9300D0CDB7DEB7AD
:1013000080EE92E061E0AE014F5F5F4F0E94A70761
:101310008330A1F0843028F4813041F08230F1F440
:1013200008C0843081F08530C9F412C029813A8127
:1013300017C088E793E06BE271E00EC088E793E0A6
:101340006BE471E009C088E793E061E571E004C0F7
:1013500088E793E06BE571E00E94670D2FEF3FEFA8
:10136000C9010F900F90CF91DF910895CF92DF9236
:10137000EF92FF920F931F93DF93CF93CDB7DEB71A
:101380002E970FB6F894DEBF0FBECDBF9C017B0138
:10139000CDB6DEB68E01085F1F4FC801B9010E94AD
:1013A000D40EC801B7010E944D0EBC017E01089405
:1013B000E11CF11CC7010E94C90EC8010E94E50E84
:1013C0004D815E814F5F5F4F8DB79EB7841B950B3C
:1013D0000FB6F8949EBF0FBE8DBF0DB71EB70F5F3F
:1013E0001F4FC701B80120E030E00E947A0D8AEF5C
:1013F00091E0B8010E943108C7010E94DF0E0FB6CC
:10140000F894DEBE0FBECDBE2E960FB6F894DEBFAA
:101410000FBECDBFCF91DF911F910F91FF90EF9045
:10142000DF90CF900895EF92FF920F931F93DF9379
:10143000CF93CDB7DEB727970FB6F894DEBF0FBEB8
:10144000CDBF8AEF91E00E94F3080E947B098C01D6
:101450007E010894E11CF11CC70163E671E00E9463
:101460007F0EC701B8010E94B609809180010E94D9
:1014700084108C01C7016FE671E00E94990EC701CC
:10148000B8010E94B60968EE73E080E090E00E9427
:10149000530FC7010E94DF0E27960FB6F894DEBFE8
:1014A0000FBECDBFCF91DF911F910F91FF90EF90B5
:1014B00008950F931F934091820150918301609191
:1014C00084017091850188E793E00E94FE0A809173
:1014D000800160E00E94F10F80EE92E06091860151
:1014E0004091880100E815E220E030E00E94B1065A
:1014F0001F910F91089508951F920F920FB60F92AA
:1015000011242F933F934F938F939F93EF93FF93C8
:101510004091C60020913003309131032F5F3F4F3F
:101520002F7330708091320390913303281739075D
:1015300059F0E0913003F0913103E051FD4F4083C9
:101540003093310320933003FF91EF919F918F915E
:101550004F913F912F910F900FBE0F901F901895B4
:10156000E0918403F0918503E05CFF4F81919191BC
:1015700020813181821B930B8F739070892B11F026
:101580000E947B0A08951F920F920FB60F921124AA
:101590002F933F938F939F93EF93FF932091740327
:1015A000309175038091760390917703281739075E
:1015B00031F48091C1008F7D8093C10014C0E0910F
:1015C0007603F0917703EC5CFC4F208180917603E9
:1015D0009091770301968F73907090937703809327
:1015E00076032093C600FF91EF919F918F913F91D9
:1015F0002F910F900FBE0F901F901895AF92BF9232
:10160000DF92EF92FF920F931F93CF93DF93EC0142
:101610007A018B01DD24403081EE580780E06807B5
:1016200080E0780711F0DD24D39491E0A92EB12C4D
:10163000EC89FD89DD2069F0C5010E8C02C0880FA0
:10164000991F0A94E2F7808360E079E08DE390E0EF
:1016500005C0108260E874E88EE190E0A80197016F
:101660000E94091121503040404050405695479506
:101670003795279580E12030380720F0DD2011F0E4
:10168000DD24D6CFE889F9893083EA89FB89208374
:10169000EE89FF89408121E030E0C9010A8C02C057
:1016A000880F991F0A94E2F7482B4083EE89FF893F
:1016B0004081C9010B8C02C0880F991F0A94E2F780
:1016C000482B4083EE89FF894081C9010C8C02C000
:1016D000880F991F0A94E2F7482B4083EE89FF890F
:1016E00080810D8C02C0220F331F0A94E2F72095EF
:1016F00028232083DF91CF911F910F91FF90EF90CE
:10170000DF90BF90AF900895DC011C96ED91FC91A5
:101710001D97E05CFF4F2191319180819181281BC1
:10172000390B2F733070C9010895DC011C96ED91BF
:10173000FC911D97E05CFF4F20813181E054F04027
:10174000DF01AE5BBF4F8D919C9111972817390730
:1017500019F42FEF3FEF07C08D919C91E80FF91F0F
:101760008081282F30E0C9010895DC011C96ED919D
:10177000FC911D97E05CFF4F20813181E054F040E7
:10178000DF01AE5BBF4F8D919C91119728173907F0
:1017900019F42FEF3FEF10C08D919C911197E80F36
:1017A000F91F20818D919C91119701968F739070F4
:1017B00011969C938E9330E0C9010895FC018685B3
:1017C0009785DC01A05CBF4FFC01EE5BFF4F2D91C4
:1017D0003C9111978081918128173907C1F70895AD
:1017E000CF93DF93EC01EE85FF85E05CFF4F208116
:1017F0003181E054F0402F5F3F4F2F733070DF0195
:10180000AE5BBF4F8D919C91119728173907D1F38B
:10181000E05CFF4F80819181E054F040E80FF91FB8
:101820006083EE85FF85E05CFF4F31832083EE8986
:10183000FF89208181E090E00D8C02C0880F991F04
:101840000A94E2F7282B208381E090E0DF91CF918A
:10185000089510927B0310927A0388EE93E0A0E043
:10186000B0E080937C0390937D03A0937E03B093BC
:101870007F0389EA91E0909379038093780380EF66
:1018800092E0909385038093840384E393E09093A4
:1018900087038093860385EC90E09093890380937F
:1018A000880384EC90E090938B0380938A0380EC10
:1018B00090E090938D0380938C0381EC90E0909363
:1018C0008F0380938E0386EC90E090939103809336
:1018D000900384E08093920383E08093930387E0F6
:1018E0008093940385E08093950381E08093960331
:1018F0000895CF92DF92EF92FF920F931F93CF93B1
:10190000DF937C016B018A01C0E0D0E00FC0D601FB
:101910006D916D01D701ED91FC910190F081E02D69
:10192000C7010995C80FD91F0150104001151105B5
:1019300071F7CE01DF91CF911F910F91FF90EF9042
:10194000DF90CF900895DC01ED91FC910190F08142
:10195000E02D09950895EF92FF920F931F938C014C
:10196000DC01ED91FC910190F081E02D6DE0099595
:101970007C01D801ED91FC910190F081E02DC8012E
:101980006AE009959C012E0D3F1DC9011F910F9121
:10199000FF90EF900895CF93DF93DB010D9000202F
:1019A000E9F71197A61BB70BEC01E881F9810280DA
:1019B000F381E02DAD010995DF91CF9108954F920C
:1019C0005F927F928F929F92AF92BF92CF92DF925F
:1019D000EF92FF920F931F93DF93CF93CDB7DEB7B4
:1019E000A1970FB6F894DEBF0FBECDBF2C01742EA9
:1019F000CB01223008F42AE019A231E2C32ED12C07
:101A0000CC0EDD1E822E9924AA24BB24672D752FAF
:101A1000A50194010E94091179018A01C801B70149
:101A2000A50194010E94D710472D461B0894C108B8
:101A3000D1084A3014F4405D01C0495CF60140838E
:101A4000E114F1040105110521F07E2C5F2DC80180
:101A5000DDCFC201B6010E94CB0CA1960FB6F8945F
:101A6000DEBF0FBECDBFCF91DF911F910F91FF90D1
:101A7000EF90DF90CF90BF90AF909F908F907F902E
:101A80005F904F900895DC012115310541F4ED91EF
:101A9000FC910190F081E02D642F099508950E943A
:101AA000DF0C0895EF92FF920F931F939A01E62E99
:101AB000FF2400E010E0B801A7010E94430D1F9130
:101AC0000F91FF90EF9008950E94CB0C0895EF9234
:101AD000FF920F931F937C010E94CB0C8C01C701D6
:101AE0000E94AB0C080F191FC8011F910F91FF90A6
:101AF000EF9008950F931F93CF93DF93FC018B0119
:101B000041155105F9F061157105E1F08481958168
:101B10002817390718F0FB01108214C041505040BB
:101B2000EC01C21BD30B4C175D0708F4EA0160817E
:101B30007181620F731FC801AE010E94BC02C00F09
:101B4000D11F1882DF91CF911F910F9108950F93AC
:101B50001F93CF93DF93EC018B016F5F7F4F8881E1
:101B600099810E94D701009711F480E005C0998304
:101B700088831B830A8381E0DF91CF911F910F91AE
:101B80000895CF93DF93EC0188819981892B29F007
:101B90008A819B818617970760F4CE010E94A70D6A
:101BA000882341F08C819D81892B19F4E881F9818A
:101BB000108281E0DF91CF910895EF92FF920F9311
:101BC0001F93CF93DF93EC017B016C817D81E11446
:101BD000F104C1F04115510599F08A01060F171F54
:101BE000B8010E94C10D882369F0888199812C81F8
:101BF0003D81820F931FB7010E94B5021D830C83A4
:101C000081E001C080E0DF91CF911F910F91FF90A3
:101C1000EF900895EF92FF920F931F93DF93CF936E
:101C2000CDB7DEB727970FB6F894DEBF0FBECDBF96
:101C30007C01CB018E010F5F1F4FB8014AE050E0DD
:101C40000E94CB02F80101900020E9F73197E01BD8
:101C5000F10BC701B801AF010E94DD0D27960FB649
:101C6000F894DEBF0FBECDBFCF91DF911F910F91D2
:101C7000FF90EF900895CF93DF93EC0188819981D5
:101C8000009711F00E947F01198218821D821C8228
:101C90001B821A82DF91CF9108950F931F93182F03
:101CA000092F0E940A0E882321F4812F902F0E9471
:101CB0003B0E812F902F1F910F910895EF92FF926D
:101CC0000F931F93CF93DF93EC017B018A01BA013D
:101CD0000E94C10D882321F4CE010E943B0E07C053
:101CE0001D830C8388819981B7010E94B502CE01C2
:101CF000DF91CF911F910F91FF90EF900895CF93B7
:101D0000DF93EC01198218821B821A821D821C82C9
:101D10001E826115710551F0DB010D900020E9F77D
:101D20001197A61BB70BAD010E945E0EDF91CF91FC
:101D300008950F931F93182F092F6115710559F0FE
:101D4000DB010D900020E9F71197A61BB70BAD0141
:101D50000E945E0E02C00E943B0E812F902F1F91A9
:101D60000F910895CF93DF93EC01FB01861797073E
:101D700061F0608171816115710529F0448155819F
:101D80000E945E0E02C00E943B0ECE01DF91CF91F9
:101D90000895FC011182108213821282158214822E
:101DA00016820E94B20E0895FC01118210821382E5
:101DB00012821582148216820E94B20E0895FC01CE
:101DC000808191810E947F010895FC018081918131
:101DD0000E947F010895CF93DF930E94B60F0E9467
:101DE000590AC0EBDAE00E94130A2097E1F30E943F
:101DF000B00AF9CF0E94D50008951F920F920FB636
:101E00000F9211242F933F938F939F93AF93BF9380
:101E100080919B0390919C03A0919D03B0919E03A0
:101E200030919F030196A11DB11D232F2D5F2D37EA
:101E300020F02D570196A11DB11D20939F03809383
:101E40009B0390939C03A0939D03B0939E0380916A
:101E5000970390919803A0919903B0919A030196EA
:101E6000A11DB11D8093970390939803A0939903AC
:101E7000B0939A03BF91AF919F918F913F912F9112
:101E80000F900FBE0F901F9018958FB7F894209168
:101E90009B0330919C0340919D0350919E038FBF03
:101EA000B901CA0108959B01AC017FB7F8948091F4
:101EB000970390919803A0919903B0919A0366B506
:101EC000A89B05C06F3F19F00196A11DB11D7FBFF2
:101ED000BA2FA92F982F8827860F911DA11DB11DFC
:101EE00062E0880F991FAA1FBB1F6A95D1F7BC013A
:101EF0002DC0FFB7F8948091970390919803A0911B
:101F00009903B0919A03E6B5A89B05C0EF3F19F07D
:101F10000196A11DB11DFFBFBA2FA92F982F8827A9
:101F20008E0F911DA11DB11DE2E0880F991FAA1F00
:101F3000BB1FEA95D1F7861B970B885E9340C8F2CA
:101F4000215030404040504068517C4F21153105B0
:101F50004105510571F60895019739F0880F991FD1
:101F6000880F991F02970197F1F70895789484B527
:101F7000826084BD84B5816084BD85B5826085BD85
:101F800085B5816085BDEEE6F0E08081816080836B
:101F9000E1E8F0E01082808182608083808181604E
:101FA0008083E0E8F0E0808181608083E1EBF0E015
:101FB000808184608083E0EBF0E0808181608083B9
:101FC000EAE7F0E0808184608083808182608083A2
:101FD0008081816080838081806880831092C100CD
:101FE0000895CF93DF93482F50E0CA01865D9E4F3E
:101FF000FC0134914A5E5E4FFA018491882369F1B5
:1020000090E0880F991FFC01E850FF4FA591B49113
:10201000FC01EE5FFE4FC591D491662351F42FB7BA
:10202000F8948C91932F909589238C9388818923A0
:102030000BC0623061F42FB7F8948C91932F909578
:1020400089238C938881832B88832FBF06C09FB7F9
:10205000F8948C91832B8C939FBFDF91CF9108953F
:10206000482F50E0CA01825C9E4FFC012491CA01B6
:10207000865D9E4FFC0194914A5E5E4FFA01349159
:10208000332309F440C0222351F1233071F024306E
:1020900028F42130A1F0223011F514C02630B1F01F
:1020A0002730C1F02430D9F404C0809180008F77AC
:1020B00003C0809180008F7D8093800010C084B524
:1020C0008F7702C084B58F7D84BD09C08091B00038
:1020D0008F7703C08091B0008F7D8093B000E32F95
:1020E000F0E0EE0FFF1FEE5FFE4FA591B4912FB70A
:1020F000F894662321F48C919095892302C08C91E9
:10210000892B8C932FBF0895682F70E0CB01825CE0
:102110009E4FFC012491CB01865D9E4FFC014491B2
:102120006A5E7E4FFB019491992319F420E030E020
:102130003CC0222351F1233071F0243028F42130A7
:10214000A1F0223011F514C02630B1F02730C1F0D3
:102150002430D9F404C0809180008F7703C080912F
:1021600080008F7D8093800010C084B58F7702C07F
:1021700084B58F7D84BD09C08091B0008F7703C086
:102180008091B0008F7D8093B000892F90E0880F00
:10219000991F845F9E4FFC01A591B4918C9120E022
:1021A00030E0842311F021E030E0C9010895629FFE
:1021B000D001739FF001829FE00DF11D649FE00D3F
:1021C000F11D929FF00D839FF00D749FF00D659FA0
:1021D000F00D9927729FB00DE11DF91F639FB00D9F
:1021E000E11DF91FBD01CF011124089597FB092EB0
:1021F00007260AD077FD04D02ED006D000201AF48E
:10220000709561957F4F0895F6F7909581959F4F52
:102210000895A1E21A2EAA1BBB1BFD010DC0AA1F27
:10222000BB1FEE1FFF1FA217B307E407F50720F03F
:10223000A21BB30BE40BF50B661F771F881F991FBA
:102240001A9469F760957095809590959B01AC0103
:10225000BD01CF010895AA1BBB1B51E107C0AA1FF6
:10226000BB1FA617B70710F0A61BB70B881F991F37
:102270005A95A9F780959095BC01CD010895EE0F70
:10228000FF1F0590F491E02D09942F923F924F92F9
:102290005F926F927F928F929F92AF92BF92CF92F6
:1022A000DF92EF92FF920F931F93CF93DF93CDB7FF
:1022B000DEB7CA1BDB0B0FB6F894DEBF0FBECDBF77
:1022C00009942A88398848885F846E847D848C8448
:1022D0009B84AA84B984C884DF80EE80FD800C8151
:1022E0001B81AA81B981CE0FD11D0FB6F894DEBF34
:0C22F0000FBECDBFED010895F894FFCFA4
:1022FC00466C6167206E6F742072656769737465D4
:10230C007265643A2000466C6167206F7574206FAB
:10231C006620626F756E64733A200057726F6E6739
:10232C002072656164696E6720747970653A205417
:10233C00656D7065726174757265004572726F724D
:10234C00004E6F742052656164790054696D656F3D
:10235C0075740046524F4E5450524F583A2000421A
:10236C0041434B50524F583A20002000A403000028
:10237C000B0000C201000200030000000000DC049E
:10238C00790CC204A1049F058E050000000000001A
:10239C00002A08790C00000000F00B790C840BB5B6
:0623AC000B950BDE0B0097
:00000001FF
