:100000000C94AB000C94D3000C94D3000C944102DC
:100010000C946B020C9495020C94D3000C94D300B6
:100020000C94D3000C94D3000C94D3000C94D30004
:100030000C94D3000C94D3000C94D3000C94D300F4
:100040000C94540C0C94D3000C94F1080C943809C3
:100050000C94D3000C94D3000C94D3000C94D300D4
:100060000C94D3000C94D30000C2010001001100D5
:1000700011000C0000E100000A002500250021000D
:10008000009600001900390039003600127A00008D
:100090001F004600460044008070000022004D0012
:1000A0004D004A00004B00003600750075007200DC
:1000B000403800004A009C009C0099008025000008
:1000C0007200EC00EC00E900C0120000E900DA0167
:1000D000DA01D70160090000D701B603B603B30304
:1000E000B0040000B3036E076E076B072C0100001D
:1000F000DC0EC11DC11DBE1D000000002400270034
:100100002A0000000000250028002B00000000004D
:100110002300260029000404040404040404020249
:100120000202020203030303030301020408102076
:100130004080010204081020010204081020000081
:100140000007000201000003040600000000000098
:10015000000074089E0A11241FBECFEFD8E0DEBF56
:10016000CDBF11E0A0E0B1E0E6E9FCE102C00590FE
:100170000D92AE39B107D9F713E0AEE9B1E001C095
:100180001D92AC38B107E1F711E0C6E5D1E004C03B
:100190002297FE010E94450EC235D107C9F70E9481
:1001A000420C0C94490E0C940000CF93DF93BC01D9
:1001B0008230910510F462E070E0A0918A03B09162
:1001C0008B03ED01E0E0F0E040E050E021C08881E9
:1001D00099818617970769F48A819B81309719F076
:1001E0009383828304C090938B0380938A03FE01E0
:1001F00034C06817790738F44115510519F0841790
:10020000950708F4AC01FE018A819B819C01E901FC
:100210002097E9F641155105A9F1CA01861B970BF4
:10022000049708F4BA01E0E0F0E02AC08D919C91B7
:10023000119784179507F9F46417750781F41296DE
:100240008D919C911397309719F09383828304C00A
:1002500090938B0380938A03FD0132964CC0CA01B0
:10026000861B970BFD01E80FF91F619371930297AD
:100270008D939C9340C0FD01828193819C01D901A3
:100280001097A1F68091880390918903892B41F4FE
:100290008091650190916601909389038093880312
:1002A00040916701509168014115510541F44DB7E6
:1002B0005EB78091630190916401481B590B2091B6
:1002C000880330918903CA01821B930B8617970715
:1002D00080F0AB014E5F5F4F8417950750F0420FDF
:1002E000531F5093890340938803F90161937193DD
:1002F00002C0E0E0F0E0CF01DF91CF910895CF930D
:10030000DF93009709F450C0EC0122971B821A82F8
:10031000A0918A03B0918B03109709F140E050E05F
:10032000AC17BD0708F1BB83AA83FE01219131916F
:10033000E20FF31FAE17BF0779F48D919C911197CF
:10034000280F391F2E5F3F4F3983288312968D91D6
:100350009C9113979B838A834115510571F4D09327
:100360008B03C0938A0320C012968D919C911397A2
:10037000AD01009711F0DC01D3CFFA01D383C28322
:1003800021913191E20FF31FCE17DF0769F48881C5
:100390009981280F391F2E5F3F4FFA013183208347
:1003A0008A819B8193838283DF91CF9108950F93FC
:1003B0001F93CF93DF93FC01738D76957170A685A3
:1003C000B7859585772329F08C91892309F454C04A
:1003D00004C08C91892309F04FC08389948920E05F
:1003E00001972FEF8F3F9207D9F7C589D689A68548
:1003F000B785158560E031E040E050E000E0CE01D7
:10040000202F01972FEF8F3F9207D9F78C918123EF
:1004100011F0632B03C0832F80956823330F4F5F48
:100420005F4F4830510559F78789908D20E001973B
:100430002FEF8F3F9207D9F7711160958091E001FE
:100440002091E10190E001968F73907030E0821767
:10045000930779F0E091E001F0E0E056FE4F608311
:100460008091E00190E001968F7390708093E0019D
:1004700003C0838D8160838FDF91CF911F910F9196
:1004800008951F920F920FB60F9211242F933F934E
:100490004F935F936F937F938F939F93AF93BF938C
:1004A000EF93FF9380919E0190919F01009711F02F
:1004B0000E94D701FF91EF91BF91AF919F918F91D2
:1004C0007F916F915F914F913F912F910F900FBE50
:1004D0000F901F9018951F920F920FB60F92112434
:1004E0002F933F934F935F936F937F938F939F933C
:1004F000AF93BF93EF93FF9380919E0190919F01E3
:10050000009711F00E94D701FF91EF91BF91AF9139
:100510009F918F917F916F915F914F913F912F911B
:100520000F900FBE0F901F9018951F920F920FB64D
:100530000F9211242F933F934F935F936F937F9369
:100540008F939F93AF93BF93EF93FF9380919E01FF
:1005500090919F01009711F00E94D701FF91EF91B8
:10056000BF91AF919F918F917F916F915F914F91CB
:100570003F912F910F900FBE0F901F901895CF9223
:10058000DF92EF92FF920F931F93CF93DF93EC01D3
:100590007A018B011A8E198E188E1F8A1E8A1D8A67
:1005A0001C8A1B8A20E030E06901CC0CDD1CC20EE5
:1005B000D31EB601660F771F660F771FAB01485930
:1005C0005F4FFA0185919591A591B4918E159F0584
:1005D000A007B107E9F4FB01E459FF4F859194911D
:1005E0009C8B8B8BFB01E259FF4F859194919E8BE5
:1005F0008D8BFB01E059FF4F85919491988F8F8BE4
:10060000FB01EE58FF4F859194919A8F898F06C018
:100610002F5F3F4F2C30310509F0C6CF8F89988D61
:10062000892B09F449C04C85463108F03DC09091B2
:100630006800483010F484E005C04E3010F082E0CD
:1006400001C081E0892B80936800483028F4EDE6F2
:10065000F0E0ADE6B0E00BC04E3028F0ECE6F0E0A4
:10066000ACE6B0E004C0EBE6F0E0ABE6B0E0508111
:10067000483040F481E090E002C0880F991F4A950D
:10068000E2F710C0242F30E04E3018F428503040EC
:1006900002C02E50304081E090E002C0880F991FC8
:1006A0002A95E2F7852B8C93898D9A8D20E001970E
:1006B0002FEF8F3F9207D9F780919E0190919F0174
:1006C0008C179D0781F08B8D8E7F8B8F9FB7F89451
:1006D0001092E0018091E0018093E101D0939F01AD
:1006E000C0939E019FBFDF91CF911F910F91FF900B
:1006F000EF90DF90CF90089520919E0130919F015F
:100700002817390731F49091E1018091E0019817A1
:1007100019F42FEF3FEF0FC0E091E101F0E0E05658
:10072000FE4F20818091E10190E001968F739070DF
:100730008093E10130E0C901089520919E0130913C
:100740009F012817390719F020E030E00EC0809192
:10075000E0012091E10190E0805C9F4F821B9109B4
:1007600060E470E00E94FA0D9C01C90108950F93A6
:100770001F93DC0159968D919C915A97892B49F4CE
:1007800081E090E013969C938E93129720E030E0E6
:1007900097C00FB7F8945B968C915B975196ED914B
:1007A000FC91529750962C91509781FF8DC080817B
:1007B000822B808359968D919C915A97059620E0C3
:1007C00001972FEF8F3F9207D9F75B968C915B973C
:1007D00081FF35C031E040E050E070E010E0832F51
:1007E00090E0862397235196ED91FC915297509675
:1007F0002C915097892B29F08081209528232083E4
:1008000003C08081822B808359968D919C915A9749
:10081000212F01972FEF8F3F9207D9F7330F4F5FAB
:100820005F4F48305105D9F65196ED91FC915297A2
:10083000908150968C9150978095892333C031E0F8
:1008400040E050E070E010E0832F90E08623972393
:100850005196ED91FC91529750962C915097892B7F
:1008600021F08081822B808304C080812095282301
:10087000208359968D919C915A97212F01972FEFA4
:100880008F3F9207D9F7330F4F5F5F4F48305105C5
:10089000D9F65196ED91FC915297808150969C919A
:1008A0005097892B80830FBF59968D919C915A97B1
:1008B00020E001972FEF8F3F9207D9F721E030E03A
:1008C000C9011F910F9108958081209528232083CD
:1008D00071CF20919E0130919F012817390749F46B
:1008E0009FB7F8941092E0018091E0018093E101BC
:1008F0009FBF089520919E0130919F0128173907CD
:1009000031F49091E1018091E001981719F42FEFF3
:100910003FEF0AC0E091E101F0E0E056FE4F808138
:10092000282F332727FD3095C90108951F93CF93B2
:10093000DF93EC01162F862F60E00E94480D8B8D0F
:1009400081FD04C0812F61E00E94870D1C87212F4B
:1009500030E0C901865D9E4FFC0184918D872A5E3F
:100960003E4FF9016491E62FF0E0EE0FFF1FE45FC8
:10097000FE4F859194919F878E87DF91CF911F9134
:100980000895FF920F931F938C01F62E862F61E03E
:100990000E94480D8F2D61E00E94870D8F2D90E001
:1009A000FC01E65DFE4FE491D8015096EC93509720
:1009B0008A5E9E4FFC016491E62FF0E0EE0FFF1F70
:1009C000EE5FFE4F8591949152969C938E93519732
:1009D0001F910F91FF900895FF920F931F938C0129
:1009E000F62EFC011382128288EE93E0A0E0B0E0C4
:1009F00084839583A683B78387E791E0918380837F
:100A0000148A138A168A158A108E178A128E118EEE
:100A1000838D2170220F8C7F822B838FC801642FDE
:100A20000E94C104C8016F2D0E9496041F910F916E
:100A3000FF9008950895DC011496ED91FC911597AF
:100A4000A081B18114962D913C911597CF01F901A8
:100A5000099520E004970CF021E0822F0895EF9291
:100A6000FF920F931F93CF93DF938C01EC0184E0EF
:100A7000E82EF12CE00EF11ED8011496ED91FC91B8
:100A80001597A081B18116962D913C911797CF01B2
:100A9000F90109958B872196CE15DF0569F7DF915E
:100AA000CF911F910F91FF90EF900895CF92DF9219
:100AB000FF920F931F93CF93DF936C018B01FF2461
:100AC000C0E0D0E0F601A481B581ED91FC911197D1
:100AD0000190F081E02DCD01D8016C910995F801CC
:100AE00081918F01F80E2196C330D10559F7D601B7
:100AF0001496ED91FC911597A081B1812D913C91B7
:100B0000CF016F2DF9010995DF91CF911F910F91C1
:100B1000FF90DF90CF9008958F929F92AF92BF92F7
:100B2000CF92DF92EF92FF920F931F937C01962E4C
:100B3000842E58016901FC011186128687E18683A3
:100B400010868EE1878388EC878713861486158646
:100B500016868CE190E00E94510C182F092F692D08
:100B6000482D20E00E94EC04F70114830583812FB7
:100B7000902FB601A5010E94BF021F910F91FF9017
:100B8000EF90DF90CF90BF90AF909F908F9008959F
:100B9000CF93DF93EC018A85882319F48985882314
:100BA00081F00E949C0C28813981621B730B8F8518
:100BB00090E0861797072CF0872F881F8827881FBB
:100BC00001C081E0DF91CF9108950F931F93CF93E0
:100BD000DF93EC018B010E941B05882311F484E054
:100BE00042C0CE010E94C805882311F085E03BC0B9
:100BF000CE010E942F058B858131C9F0823269F5C3
:100C000019864C858D85282F30E0842F90E0822333
:100C100093238F3F910531F18FEF489FC00111243D
:100C2000820F931FF8019183808381E01CC01A8694
:100C30004D85242F30E08C8590E0282339232F3FE9
:100C4000310581F0442321F4F8011182108203C0A0
:100C5000F8014083118282E006C01A861986F801E5
:100C60001182108283E0DF91CF911F910F9108953F
:100C7000FF920F931F93DF93CF9300D00F92CDB7C6
:100C8000DEB78C01F62E0E94C805882389F10E94E8
:100C90009C0CF8016083718382839383DE0111963B
:100CA000E3E8F1E083E001900D928150E1F7F1E09B
:100CB000FF1679F082E0F816D9F481E18983C80142
:100CC000BE016F5F7F4F0E94560581E0F801828769
:100CD00010C082E28983F80186818A83C801BE013F
:100CE0006F5F7F4F0E945605F801F18681E001C0D9
:100CF00080E00F900F900F90CF91DF911F910F9197
:100D0000FF9008950F931F93CF93DF93EC018A0117
:100D10000E943806882311F484E015C0CE010E9499
:100D2000C8058823A9F4CE010E941B05882381F4FD
:100D30006AE070E080E090E00E94AA0CEFCFCE0164
:100D4000B8010E94E505DF91CF911F910F910895A1
:100D5000CE010E94C805882391F385E0F4CFFC0101
:100D6000138212828AE891E091838083E55BFF4FD2
:100D70001082EB54F040DF01AE51BF4F11961C9230
:100D80001E92EC51FF4F8EE190E091838083EA59EF
:100D9000F04082E18083329783E180838BE182930C
:100DA00032968BE3808334971182108237968D912F
:100DB0009C91119781939193EA17FB07C1F70895CE
:100DC000CF92DF92EF92FF920F931F938C016B01F2
:100DD000B0E6EB2EB3E0FB2E065B1F4FC701F80118
:100DE00060810E94180BC701B6014AE050E00E94E2
:100DF000190C02501040C701F80160810E94180BC5
:100E00001F910F91FF90EF90DF90CF900895DF92A8
:100E1000EF92FF920F931F938C01D62E80E6E82E5F
:100E200083E0F82E065B1F4FC701F80160810E9426
:100E3000180BC7016D2D4AE050E00E94C70B02500D
:100E40001040C701F80160810E94180B1F910F919B
:100E5000FF90EF90DF90089580E693E04AE050E045
:100E60000E94C70B0895CF92DF92EF92FF920F93EB
:100E70001F938C016B0190E6E92E93E0F92E065B3F
:100E80001F4FC701F80160810E94180BC701B6010E
:100E90000E942C0C02501040C701F80160810E9492
:100EA000180B1F910F91FF90EF90DF90CF90089556
:100EB000CF92DF92FF920F931F93CF93DF93EC01BA
:100EC000FD80EF2DF0E0EB37F105D4F53A97EE0F0A
:100ED000FF1FE80FF91F008111810115110569F14C
:100EE0008C818130E9F1FE01EB5BFF4F81E090E006
:100EF00091838083DE0141E050E0BE01675B7F4F5C
:100F00006F0115C016962C91169730E0FB01808179
:100F1000992787FD90952817390731F4F6018081CC
:100F200091810196918380834F5F5F4F11968C81F1
:100F300090E04817590734F33FC060E071E047C0C4
:100F4000C55BDF4F8881CB54D0408823E9F1CE5177
:100F5000DF4F08811981C25ED0408C81813019F445
:100F600060E070E02DC0FE01EB5BFF4F81E090E0A0
:100F700091838083DE0141E050E0BE01675B7F4FDB
:100F80006F0115C016962C91169730E0FB018081F9
:100F9000992787FD90952817390731F4F60180814C
:100FA00091810196918380834F5F5F4F11968C8171
:100FB00090E04817590734F3CB5BDF4F68817981A4
:100FC0008F2DF801099509C0CE0166E171E00E94FC
:100FD0003307CE016D810E940707DF91CF911F91EA
:100FE0000F91FF90DF90CF900895AF92BF92CF9274
:100FF000DF92EF92FF920F931F93CF93DF93EC0159
:1010000037E4A32EB12CA80EB91E28E4C22ED12C91
:10101000C80ED91E8C010B5B1F4F94EEE92EF12CEC
:10102000EC0EFD1E37C080E693E00E942A0A482F8E
:10103000282F30E0F5018081992787FD90952817AA
:10104000390741F4FE0180E015828F5F31968034CC
:10105000D9F712C0F6018081992787FD909528174E
:10106000390779F4CE010E945807FE0180E015820D
:101070008F5F31968034D9F71C82F801118210827B
:1010800009C08C81803420F5FE01E80FF11D4583F5
:101090008F5F8C8380E693E00E94F9091816190689
:1010A00014F280E693E00E94F9091816190694F3E9
:1010B000F70180819181009711F00E94030D80E675
:1010C00093E00E94F9091816190624F381E001C083
:1010D00080E0DF91CF911F910F91FF90EF90DF9013
:1010E000CF90BF90AF90089582EE91E00E94AF063E
:1010F00088EC92E00E941A050895DF93CF9300D008
:10110000CDB7DEB788EC92E061E0AE014F5F5F4F94
:101110000E9482068330A1F0843028F4813041F0AF
:101120008230F1F408C0843081F08530C9F412C0F7
:1011300029813A8117C080E693E06BE271E00EC02E
:1011400080E693E06BE471E009C080E693E061E53E
:1011500071E004C080E693E06BE571E00E942F0C23
:101160002FEF3FEFC9010F900F90CF91DF910895BE
:101170000F931F9302EE11E0C8010E94F5070E9431
:101180007D08BC01C8010E94E00660E177E280E0D2
:1011900090E00E94AA0C1F910F9108950F931F9346
:1011A00040916B0150916C0160916D0170916E01E5
:1011B00080E693E00E9473098091690160E00E94DB
:1011C000480D88EC92E060916F014091710100E858
:1011D00015E220E030E00E948C051F910F910895E8
:1011E00008951F920F920FB60F9211242F933F93E1
:1011F0004F938F939F93EF93FF934091C60020915D
:101200001803309119032F5F3F4F2F733070809177
:101210001A0390911B032817390759F0E09118031E
:10122000F0911903E852FD4F408330931903209346
:101230001803FF91EF919F918F914F913F912F91C3
:101240000F900FBE0F901F901895E0916C03F091D6
:101250006D03E05CFF4F8191919120813181821B70
:10126000930B8F739070892B11F00E94F0080895F2
:101270001F920F920FB60F9211242F933F938F93CB
:101280009F93EF93FF9320915C0330915D038091D6
:101290005E0390915F032817390731F48091C100F4
:1012A0008F7D8093C10014C0E0915E03F0915F03D5
:1012B000E45EFC4F208180915E0390915F03019674
:1012C0008F73907090935F0380935E032093C600AA
:1012D000FF91EF919F918F913F912F910F900FBEB2
:1012E0000F901F901895AF92BF92DF92EF92FF92EE
:1012F0000F931F93CF93DF93EC017A018B01DD24D1
:10130000403081EE580780E0680780E0780711F0F0
:10131000DD24D39491E0A92EB12CEC89FD89DD2048
:1013200069F0C5010E8C02C0880F991F0A94E2F77C
:10133000808360E079E08DE390E005C0108260E892
:1013400074E88EE190E0A80197010E940D0E2150F3
:10135000304040405040569547953795279580E15D
:101360002030380720F0DD2011F0DD24D6CFE889C9
:10137000F9893083EA89FB892083EE89FF894081DE
:1013800021E030E0C9010A8C02C0880F991F0A943D
:10139000E2F7482B4083EE89FF894081C9010B8C1D
:1013A00002C0880F991F0A94E2F7482B4083EE8908
:1013B000FF894081C9010C8C02C0880F991F0A94D3
:1013C000E2F7482B4083EE89FF8980810D8C02C0B3
:1013D000220F331F0A94E2F7209528232083DF9100
:1013E000CF911F910F91FF90EF90DF90BF90AF9042
:1013F0000895DC011C96ED91FC911D97E05CFF4F78
:101400002191319180819181281B390B2F7330708C
:10141000C9010895DC011C96ED91FC911D97E05CDB
:10142000FF4F20813181E054F040DF01AE5BBF4FC0
:101430008D919C9111972817390719F42FEF3FEFE1
:1014400007C08D919C91E80FF91F8081282F30E013
:10145000C9010895DC011C96ED91FC911D97E05C9B
:10146000FF4F20813181E054F040DF01AE5BBF4F80
:101470008D919C9111972817390719F42FEF3FEFA1
:1014800010C08D919C911197E80FF91F20818D91CB
:101490009C91119701968F73907011969C938E93E7
:1014A00030E0C9010895FC0186859785DC01A05CC8
:1014B000BF4FFC01EE5BFF4F2D913C911197808156
:1014C000918128173907C1F70895CF93DF93EC0175
:1014D000EE85FF85E05CFF4F20813181E054F040D4
:1014E0002F5F3F4F2F733070DF01AE5BBF4F8D9189
:1014F0009C91119728173907D1F3E05CFF4F808149
:101500009181E054F040E80FF91F6083EE85FF857C
:10151000E05CFF4F31832083EE89FF89208181E0E9
:1015200090E00D8C02C0880F991F0A94E2F7282BD7
:10153000208381E090E0DF91CF91089510926303C2
:101540001092620388EE93E0A0E0B0E08093640321
:1015500090936503A0936603B093670382E991E0DB
:10156000909361038093600388ED92E090936D0304
:1015700080936C038CE193E090936F0380936E03F0
:1015800085EC90E0909371038093700384EC90E07D
:10159000909373038093720380EC90E090937503B3
:1015A0008093740381EC90E09093770380937603AB
:1015B00086EC90E0909379038093780384E08093A5
:1015C0007A0383E080937B0387E080937C0385E04C
:1015D00080937D0381E080937E030895CF92DF9214
:1015E000EF92FF920F931F93CF93DF937C016B01D8
:1015F0008A01C0E0D0E00FC0D6016D916D01D70126
:10160000ED91FC910190F081E02DC7010995C80F83
:10161000D91F015010400115110571F7CE01DF915E
:10162000CF911F910F91FF90EF90DF90CF90089591
:10163000DC01ED91FC910190F081E02D0995089578
:10164000EF92FF920F931F938C01DC01ED91FC91BF
:101650000190F081E02D6DE009957C01D801ED91BC
:10166000FC910190F081E02DC8016AE009959C0190
:101670002E0D3F1DC9011F910F91FF90EF9008950E
:10168000CF93DF93DB010D900020E9F71197A61BA4
:10169000B70BEC01E881F9810280F381E02DAD0107
:1016A0000995DF91CF9108954F925F927F928F922B
:1016B0009F92AF92BF92CF92DF92EF92FF920F93E1
:1016C0001F93DF93CF93CDB7DEB7A1970FB6F894F2
:1016D000DEBF0FBECDBF2C01742ECB01223008F42B
:1016E0002AE019A231E2C32ED12CCC0EDD1E822EAF
:1016F0009924AA24BB24672D752FA50194010E946B
:101700000D0E79018A01C801B701A50194010E945B
:10171000DB0D472D461B0894C108D1084A3014F44C
:10172000405D01C0495CF6014083E114F10401050C
:10173000110521F07E2C5F2DC801DDCFC201B6015D
:101740000E94400BA1960FB6F894DEBF0FBECDBF2E
:10175000CF91DF911F910F91FF90EF90DF90CF908D
:10176000BF90AF909F908F907F905F904F90089523
:10177000DC012115310541F4ED91FC910190F081DE
:10178000E02D642F099508950E94540B0895EF925F
:10179000FF920F931F939A01E62EFF2400E010E0C2
:1017A000B801A7010E94B80B1F910F91FF90EF9015
:1017B0000895CF92DF92EF92FF920F931F93CF93F2
:1017C000DF93EC016A017B012115310541F4E881C9
:1017D000F9810190F081E02D642F09951FC02A3016
:1017E0003105D1F477FF17C0E881F9810190F081CC
:1017F000E02D6DE209958C0144275527BA014C195B
:101800005D096E097F09CE012AE00E94540B980100
:10181000280F391F04C02AE00E94540B9C01C90103
:10182000DF91CF911F910F91FF90EF90DF90CF90BC
:101830000895EF92FF920F931F937B019A01002767
:10184000F7FC0095102FB801A7010E94D90B1F913A
:101850000F91FF90EF9008950E94400B0895EF9232
:10186000FF920F931F937C010E94400B8C01C701D4
:101870000E94200B080F191FC8011F910F91FF90A4
:10188000EF900895CF93DF930E940D0D0E94CE0834
:10189000C5E2D9E00E94B8082097E1F30E9425092B
:1018A000F9CF0E94D50008951F920F920FB60F92A4
:1018B00011242F933F938F939F93AF93BF93809166
:1018C000830390918403A0918503B09186033091A6
:1018D00087030196A11DB11D232F2D5F2D3720F009
:1018E0002D570196A11DB11D20938703809383037B
:1018F00090938403A0938503B093860380917F0324
:1019000090918003A0918103B09182030196A11D63
:10191000B11D80937F0390938003A0938103B093C4
:101920008203BF91AF919F918F913F912F910F9023
:101930000FBE0F901F9018958FB7F89420918303D6
:101940003091840340918503509186038FBFB90184
:10195000CA0108959B01AC017FB7F89480917F0381
:1019600090918003A0918103B091820366B5A89BFA
:1019700005C06F3F19F00196A11DB11D7FBFBA2FA1
:10198000A92F982F8827860F911DA11DB11D62E0F8
:10199000880F991FAA1FBB1F6A95D1F7BC012DC0E4
:1019A000FFB7F89480917F0390918003A091810309
:1019B000B0918203E6B5A89B05C0EF3F19F00196F0
:1019C000A11DB11DFFBFBA2FA92F982F88278E0FF9
:1019D000911DA11DB11DE2E0880F991FAA1FBB1F19
:1019E000EA95D1F7861B970B885E9340C8F2215089
:1019F00030404040504068517C4F21153105410531
:101A0000510571F60895019739F0880F991F880FD5
:101A1000991F02970197F1F70895789484B5826031
:101A200084BD84B5816084BD85B5826085BD85B582
:101A3000816085BDEEE6F0E0808181608083E1E831
:101A4000F0E0108280818260808380818160808369
:101A5000E0E8F0E0808181608083E1EBF0E080816C
:101A600084608083E0EBF0E0808181608083EAE73E
:101A7000F0E08081846080838081826080838081C7
:101A8000816080838081806880831092C100089586
:101A9000CF93DF93482F50E0CA01865D9E4FFC0133
:101AA00034914A5E5E4FFA018491882369F190E097
:101AB000880F991FFC01E850FF4FA591B491FC01DC
:101AC000EE5FFE4FC591D491662351F42FB7F89481
:101AD0008C91932F909589238C93888189230BC0B7
:101AE000623061F42FB7F8948C91932F90958923ED
:101AF0008C938881832B88832FBF06C09FB7F8946F
:101B00008C91832B8C939FBFDF91CF910895482FA9
:101B100050E0CA01825C9E4FFC012491CA01865D9F
:101B20009E4FFC0194914A5E5E4FFA01349133233B
:101B300009F440C0222351F1233071F0243028F4FD
:101B40002130A1F0223011F514C02630B1F0273039
:101B5000C1F02430D9F404C0809180008F7703C095
:101B6000809180008F7D8093800010C084B58F7736
:101B700002C084B58F7D84BD09C08091B0008F778D
:101B800003C08091B0008F7D8093B000E32FF0E020
:101B9000EE0FFF1FEE5FFE4FA591B4912FB7F894A3
:101BA000662321F48C919095892302C08C91892B16
:101BB0008C932FBF0895629FD001739FF001829F85
:101BC000E00DF11D649FE00DF11D929FF00D839FCC
:101BD000F00D749FF00D659FF00D9927729FB00D69
:101BE000E11DF91F639FB00DE11DF91FBD01CF017C
:101BF0001124089597FB092E07260AD077FD04D0FB
:101C00002ED006D000201AF4709561957F4F08956C
:101C1000F6F7909581959F4F0895A1E21A2EAA1B81
:101C2000BB1BFD010DC0AA1FBB1FEE1FFF1FA2178C
:101C3000B307E407F50720F0A21BB30BE40BF50B89
:101C4000661F771F881F991F1A9469F76095709512
:101C5000809590959B01AC01BD01CF010895AA1B11
:101C6000BB1B51E107C0AA1FBB1FA617B70710F087
:101C7000A61BB70B881F991F5A95A9F780959095B9
:101C8000BC01CD010895EE0FFF1F0590F491E02DEA
:061C90000994F894FFCF57
:101C9600466C6167206E6F74207265676973746540
:101CA6007265643A2000466C6167206F7574206F18
:101CB6006620626F756E64733A200057726F6E67A6
:101CC6002072656164696E6720747970653A205484
:101CD600656D7065726174757265004572726F72BA
:101CE600004E6F742052656164790054696D656FAA
:101CF60075740020008C0300000B0000C201000276
:101D060000030000000000B703EE0A9D037C037A7F
:101D1600046904000000000000002C07EE0A000021
:0E1D26000000650AEE0AF9092A0A0A0A530AA1
:00000001FF
