:100000000C94AC000C94D4000C94D4000C944001DB
:100010000C946A010C9494010C94D4000C94D400B8
:100020000C94D4000C94D4000C94D4000C94D40000
:100030000C94D4000C94D4000C94D4000C94D400F0
:100040000C9466070C94D4000C94E9040C943005CD
:100050000C94D4000C94D4000C94D4000C94D400D0
:100060000C94D4000C94D40000C2010001001100D3
:1000700011000C0000E100000A002500250021000D
:10008000009600001900390039003600127A00008D
:100090001F004600460044008070000022004D0012
:1000A0004D004A00004B00003600750075007200DC
:1000B000403800004A009C009C0099008025000008
:1000C0007200EC00EC00E900C0120000E900DA0167
:1000D000DA01D70160090000D701B603B603B30304
:1000E000B0040000B3036E076E076B072C0100001D
:1000F000DC0EC11DC11DBE1D000000002400270034
:100100002A0000000000250028002B00000000004D
:100110002300260029000404040404040404020249
:100120000202020203030303030301020408102076
:100130004080010204081020010204081020000081
:100140000007000201000003040600000000000098
:100150000000760496066F0411241FBECFEFD8E08E
:10016000DEBFCDBF11E0A0E0B1E0E2E6F2E102C007
:1001700005900D92AA33B107D9F712E0AAE3B1E0D6
:1001800001C01D92AC34B107E1F711E0C6E5D1E042
:1001900004C02297FE010E942009C235D107C9F789
:1001A0000E9457070C9424090C9400000F931F938E
:1001B000CF93DF93FC01738D76957170A685B7851B
:1001C0009585772329F08C91892309F454C004C0C4
:1001D0008C91892309F04FC08389948920E001978D
:1001E0002FEF8F3F9207D9F7C589D689A685B785A6
:1001F000158560E031E040E050E000E0CE01202FC6
:1002000001972FEF8F3F9207D9F78C91812311F03F
:10021000632B03C0832F80956823330F4F5F5F4F9D
:100220004830510559F78789908D20E001972FEFCD
:100230008F3F9207D9F77111609580917C012091D1
:100240007D0190E001968F73907030E082179307E4
:1002500079F0E0917C01F0E0E45CFE4F60838091F6
:100260007C0190E001968F73907080937C0103C0B5
:10027000838D8160838FDF91CF911F910F910895BE
:100280001F920F920FB60F9211242F933F934F930B
:100290005F936F937F938F939F93AF93BF93EF93EE
:1002A000FF9380913A0190913B01009711F00E94D9
:1002B000D600FF91EF91BF91AF919F918F917F9168
:1002C0006F915F914F913F912F910F900FBE0F90C3
:1002D0001F9018951F920F920FB60F9211242F9313
:1002E0003F934F935F936F937F938F939F93AF93BE
:1002F000BF93EF93FF9380913A0190913B01009758
:1003000011F00E94D600FF91EF91BF91AF919F91A4
:100310008F917F916F915F914F913F912F910F90AE
:100320000FBE0F901F9018951F920F920FB60F924D
:1003300011242F933F934F935F936F937F938F93EA
:100340009F93AF93BF93EF93FF9380913A01909166
:100350003B01009711F00E94D600FF91EF91BF91F1
:10036000AF919F918F917F916F915F914F913F914D
:100370002F910F900FBE0F901F901895CF92DF9284
:10038000EF92FF920F931F93CF93DF93EC017A01CB
:100390008B011A8E198E188E1F8A1E8A1D8A1C8A3E
:1003A0001B8A20E030E06901CC0CDD1CC20ED31E9C
:1003B000B601660F771F660F771FAB0148595F4F75
:1003C000FA0185919591A591B4918E159F05A0078D
:1003D000B107E9F4FB01E459FF4F859194919C8B9F
:1003E0008B8BFB01E259FF4F859194919E8B8D8BF6
:1003F000FB01E059FF4F85919491988F8F8BFB0102
:10040000EE58FF4F859194919A8F898F06C02F5F88
:100410003F4F2C30310509F0C6CF8F89988D892B3D
:1004200009F449C04C85463108F03DC09091680000
:10043000483010F484E005C04E3010F082E001C076
:1004400081E0892B80936800483028F4EDE6F0E0E5
:10045000ADE6B0E00BC04E3028F0ECE6F0E0ACE6E4
:10046000B0E004C0EBE6F0E0ABE6B0E0508148302D
:1004700040F481E090E002C0880F991F4A95E2F7AE
:1004800010C0242F30E04E3018F42850304002C005
:100490002E50304081E090E002C0880F991F2A95CD
:1004A000E2F7852B8C93898D9A8D20E001972FEFB1
:1004B0008F3F9207D9F780913A0190913B018C17B9
:1004C0009D0781F08B8D8E7F8B8F9FB7F894109254
:1004D0007C0180917C0180937D01D0933B01C0938E
:1004E0003A019FBFDF91CF911F910F91FF90EF9045
:1004F000DF90CF900895FC014485463180F5483067
:1005000028F4EDE6F0E0ADE6B0E00BC04E3028F4A4
:10051000EBE6F0E0ABE6B0E004C0ECE6F0E0ACE621
:10052000B0E05081483040F481E090E002C0880F94
:10053000991F4A95E2F710C0242F30E04E3018F48E
:100540002850304002C02E50304081E090E002C080
:10055000880F991F2A95E2F7809585238C9308953B
:10056000FC018EE191E091838083CF010E947B02A8
:10057000089520913A0130913B012817390731F451
:1005800090917D0180917C01981719F42FEF3FEF36
:100590000FC0E0917D01F0E0E45CFE4F208180918E
:1005A0007D0190E001968F73907080937D0130E023
:1005B000C901089520913A0130913B01281739076C
:1005C00019F020E030E00EC080917C0120917D0187
:1005D00090E0805C9F4F821B910960E470E00E9474
:1005E000D5089C01C90108950F931F93DC0159960A
:1005F0008D919C915A97892B49F481E090E0139654
:100600009C938E93129720E030E097C00FB7F89438
:100610005B968C915B975196ED91FC915297509619
:100620002C91509781FF8DC08081822B80835996B9
:100630008D919C915A97059620E001972FEF8F3F5F
:100640009207D9F75B968C915B9781FF35C031E0BB
:1006500040E050E070E010E0832F90E08623972385
:100660005196ED91FC91529750962C915097892B71
:1006700029F0808120952823208303C08081822B4C
:10068000808359968D919C915A97212F01972FEF36
:100690008F3F9207D9F7330F4F5F5F4F48305105B7
:1006A000D9F65196ED91FC915297908150968C918C
:1006B00050978095892333C031E040E050E070E0EE
:1006C00010E0832F90E0862397235196ED91FC91C3
:1006D000529750962C915097892B21F08081822B34
:1006E000808304C0808120952823208359968D9192
:1006F0009C915A97212F01972FEF8F3F9207D9F79F
:10070000330F4F5F5F4F48305105D9F65196ED9149
:10071000FC915297808150969C915097892B8083B1
:100720000FBF59968D919C915A9720E001972FEF1A
:100730008F3F9207D9F721E030E0C9011F910F9157
:100740000895808120952823208371CF20913A013C
:1007500030913B012817390749F49FB7F89410925C
:100760007C0180917C0180937D019FBF0895209141
:100770003A0130913B012817390731F490917D01FE
:1007800080917C01981719F42FEF3FEF0AC0E09198
:100790007D01F0E0E45CFE4F8081282F332727FDA8
:1007A0003095C90108951F93CF93DF93EC01162F65
:1007B000862F60E00E9442088B8D81FD04C0812F4E
:1007C00061E00E9481081C87212F30E0C901865D0D
:1007D0009E4FFC0184918D872A5E3E4FF901649102
:1007E000E62FF0E0EE0FFF1FE45FFE4F859194913E
:1007F0009F878E87DF91CF911F910895FF920F936E
:100800001F938C01F62E862F61E00E9442088F2DE7
:1008100061E00E9481088F2D90E0FC01E65DFE4FB3
:10082000E491D8015096EC9350978A5E9E4FFC015C
:100830006491E62FF0E0EE0FFF1FEE5FFE4F859113
:10084000949152969C938E9351971F910F91FF9084
:100850000895FF920F931F938C01F62EFC011382D3
:10086000128288EE93E0A0E0B0E084839583A683B3
:10087000B7838EE191E091838083148A138A168A6C
:10088000158A108E178A128E118E838D2170220F79
:100890008C7F822B838FC801642F0E94FE03C801C6
:1008A0006F2D0E94D3031F910F91FF900895813007
:1008B000910559F46F5F7F4F89F48EE791E066E010
:1008C00047E020E00E9429040895892B39F46F5FE6
:1008D0007F4F21F48EE791E00E94B002089580E0FE
:1008E00090E06FEF7FEF0E945704089581E090E061
:1008F0006FEF7FEF0E945704089580919A019091C5
:100900009B01019761F084E292E060E071E00E9457
:10091000440781E090E090939B0180939A018EE7D9
:1009200091E00E94DA02892B69F084E292E00E9451
:1009300022068EE791E00E94B902682F84E292E0DD
:100940000E945D0684E292E00E94F105892B49F045
:1009500084E292E00E942206682F8EE791E00E94D6
:10096000F40208958EE791E040E052EC61E070E01F
:100970000E94BE0168EE73E080E090E00E94AE0746
:1009800008950F931F9304E212E0C80140E855E276
:1009900060E070E00E946B0568EE73E080E090E03C
:1009A0000E94AE0786E060E00E94420887E061E0B6
:1009B0000E9442080E94B204C80162E171E00E94F4
:1009C000440710929B0110929A011F910F91089574
:1009D00008951F920F920FB60F9211242F933F93F9
:1009E0004F938F939F93EF93FF934091C600209175
:1009F000DC013091DD012F5F3F4F2F73307080910C
:100A0000DE019091DF012817390759F0E091DC01F0
:100A1000F091DD01E456FE4F40833093DD012093D9
:100A2000DC01FF91EF919F918F914F913F912F9119
:100A30000F900FBE0F901F901895E0913002F0912B
:100A40003102E05CFF4F8191919120813181821BC5
:100A5000930B8F739070892B11F00E94E804089516
:100A60001F920F920FB60F9211242F933F938F93E3
:100A70009F93EF93FF932091200230912102809168
:100A80002202909123022817390731F48091C10086
:100A90008F7D8093C10014C0E0912202F091230267
:100AA000E052FE4F20818091220290912302019614
:100AB0008F73907090932302809322022093C6003C
:100AC000FF91EF919F918F913F912F910F900FBECA
:100AD0000F901F901895AF92BF92DF92EF92FF9206
:100AE0000F931F93CF93DF93EC017A018B01DD24E9
:100AF000403081EE580780E0680780E0780711F009
:100B0000DD24D39491E0A92EB12CEC89FD89DD2060
:100B100069F0C5010E8C02C0880F991F0A94E2F794
:100B2000808360E079E08DE390E005C0108260E8AA
:100B300074E88EE190E0A80197010E94E808215036
:100B4000304040405040569547953795279580E175
:100B50002030380720F0DD2011F0DD24D6CFE889E1
:100B6000F9893083EA89FB892083EE89FF894081F6
:100B700021E030E0C9010A8C02C0880F991F0A9455
:100B8000E2F7482B4083EE89FF894081C9010B8C35
:100B900002C0880F991F0A94E2F7482B4083EE8920
:100BA000FF894081C9010C8C02C0880F991F0A94EB
:100BB000E2F7482B4083EE89FF8980810D8C02C0CB
:100BC000220F331F0A94E2F7209528232083DF9118
:100BD000CF911F910F91FF90EF90DF90BF90AF905A
:100BE0000895DC011C96ED91FC911D97E05CFF4F90
:100BF0002191319180819181281B390B2F733070A5
:100C0000C9010895DC011C96ED91FC911D97E05CF3
:100C1000FF4F20813181E054F040DF01AE5BBF4FD8
:100C20008D919C9111972817390719F42FEF3FEFF9
:100C300007C08D919C91E80FF91F8081282F30E02B
:100C4000C9010895DC011C96ED91FC911D97E05CB3
:100C5000FF4F20813181E054F040DF01AE5BBF4F98
:100C60008D919C9111972817390719F42FEF3FEFB9
:100C700010C08D919C911197E80FF91F20818D91E3
:100C80009C91119701968F73907011969C938E93FF
:100C900030E0C9010895FC0186859785DC01A05CE0
:100CA000BF4FFC01EE5BFF4F2D913C91119780816E
:100CB000918128173907C1F70895CF93DF93EC018D
:100CC000EE85FF85E05CFF4F20813181E054F040EC
:100CD0002F5F3F4F2F733070DF01AE5BBF4F8D91A1
:100CE0009C91119728173907D1F3E05CFF4F808161
:100CF0009181E054F040E80FF91F6083EE85FF8595
:100D0000E05CFF4F31832083EE89FF89208181E001
:100D100090E00D8C02C0880F991F0A94E2F7282BEF
:100D2000208381E090E0DF91CF9108951092270217
:100D30001092260288EE93E0A0E0B0E080932802B3
:100D400090932902A0932A02B0932B028EE291E0A5
:100D500090932502809324028CE991E090933102D4
:100D60008093300280EE91E09093330280933202C0
:100D700085EC90E0909335028093340284EC90E00F
:100D8000909337028093360280EC90E09093390282
:100D90008093380281EC90E090933B0280933A027A
:100DA00086EC90E090933D0280933C0284E0809337
:100DB0003E0283E080933F0287E08093400285E01B
:100DC0008093410281E0809342020895CF92DF92A6
:100DD000EF92FF920F931F93CF93DF937C016B01F0
:100DE0008A01C0E0D0E00FC0D6016D916D01D7013E
:100DF000ED91FC910190F081E02DC7010995C80F9C
:100E0000D91F015010400115110571F7CE01DF9176
:100E1000CF911F910F91FF90EF90DF90CF900895A9
:100E2000EF92FF920F931F938C01DC01ED91FC91E7
:100E30000190F081E02D6DE009957C01D801ED91E4
:100E4000FC910190F081E02DC8016AE009959C01B8
:100E50002E0D3F1DC9011F910F91FF90EF90089536
:100E6000CF93DF93DB010D900020E9F71197A61BCC
:100E7000B70BEC01E881F9810280F381E02DAD012F
:100E80000995DF91CF910895EF92FF920F931F93F1
:100E90007C010E9430078C01C7010E941007080FD7
:100EA000191FC8011F910F91FF90EF900895CF93E4
:100EB000DF930E9407080E94C104CDE1D5E00E94A3
:100EC0007D042097E1F30E941D05F9CF1F920F9238
:100ED0000FB60F9211242F933F938F939F93AF934D
:100EE000BF938091470290914802A0914902B0912E
:100EF0004A0230914B020196A11DB11D232F2D5F97
:100F00002D3720F02D570196A11DB11D20934B02C6
:100F10008093470290934802A0934902B0934A02FB
:100F20008091430290914402A0914502B091460203
:100F30000196A11DB11D8093430290934402A0939A
:100F40004502B0934602BF91AF919F918F913F911F
:100F50002F910F900FBE0F901F9018959B01AC0121
:100F60007FB7F8948091430290914402A09145028A
:100F7000B091460266B5A89B05C06F3F19F0019677
:100F8000A11DB11D7FBFBA2FA92F982F8827860FCB
:100F9000911DA11DB11D62E0880F991FAA1FBB1FE3
:100FA0006A95D1F7BC012DC0FFB7F8948091430238
:100FB00090914402A0914502B0914602E6B5A89BEB
:100FC00005C0EF3F19F00196A11DB11DFFBFBA2F5B
:100FD000A92F982F88278E0F911DA11DB11DE2E02A
:100FE000880F991FAA1FBB1FEA95D1F7861B970B85
:100FF000885E9340C8F221503040404050406851D4
:101000007C4F211531054105510571F608957894FD
:1010100084B5826084BD84B5816084BD85B58260FD
:1010200085BD85B5816085BDEEE6F0E0808181609B
:101030008083E1E8F0E0108280818260808380819B
:1010400081608083E0E8F0E0808181608083E1EB73
:10105000F0E0808184608083E0EBF0E0808181605B
:101060008083EAE7F0E08081846080838081826011
:1010700080838081816080838081806880831092FA
:10108000C1000895CF93DF93482F50E0CA01865DD9
:101090009E4FFC0134914A5E5E4FFA018491882391
:1010A00069F190E0880F991FFC01E850FF4FA5916E
:1010B000B491FC01EE5FFE4FC591D491662351F4CB
:1010C0002FB7F8948C91932F909589238C938881D6
:1010D00089230BC0623061F42FB7F8948C91932F61
:1010E000909589238C938881832B88832FBF06C09A
:1010F0009FB7F8948C91832B8C939FBFDF91CF91F6
:101100000895482F50E0CA01825C9E4FFC01249153
:10111000CA01865D9E4FFC0194914A5E5E4FFA01C2
:101120003491332309F440C0222351F1233071F06C
:10113000243028F42130A1F0223011F514C02630DB
:10114000B1F02730C1F02430D9F404C08091800080
:101150008F7703C0809180008F7D8093800010C0C6
:1011600084B58F7702C084B58F7D84BD09C080911E
:10117000B0008F7703C08091B0008F7D8093B00066
:10118000E32FF0E0EE0FFF1FEE5FFE4FA591B4914D
:101190002FB7F894662321F48C919095892302C08F
:1011A0008C91892B8C932FBF089597FB092E0726CE
:1011B0000AD077FD04D02ED006D000201AF4709506
:1011C00061957F4F0895F6F7909581959F4F08950B
:1011D000A1E21A2EAA1BBB1BFD010DC0AA1FBB1F3B
:1011E000EE1FFF1FA217B307E407F50720F0A21BAD
:1011F000B30BE40BF50B661F771F881F991F1A941A
:1012000069F760957095809590959B01AC01BD0143
:10121000CF010895AA1BBB1B51E107C0AA1FBB1F2A
:10122000A617B70710F0A61BB70B881F991F5A9572
:10123000A9F780959095BC01CD010895EE0FFF1F91
:101240000590F491E02D099411E0C6E5D1E004C0C9
:10125000FE010E9420092296C835D107C9F7F894EB
:02126000FFCFBE
:101262004B65657020697420636F6D696E672E2E01
:101272002E00537461727465640000000000F40271
:10128200E606DA02B902B703A603000000005D0613
:0A129200E606F105220602064B06EF
:00000001FF
