:100000000C9463000C948B000C948B000C944403B0
:100010000C946E030C9498030C948B000C948B003E
:100020000C948B000C948B000C948B000C94110599
:100030000C948B000C948B000C948B000C948B0014
:100040000C94410F0C948B000C948D0A0C94D40AE0
:100050000C948B000C948B000C948B000C948B00F4
:100060000C948B000C948B000000000024002700EF
:100070002A0000000000250028002B0000000000DE
:1000800023002600290004040404040404040202DA
:100090000202020203030303030301020408102007
:1000A0004080010204081020010204081020000012
:1000B0000007000201000003040600000000000029
:1000C0000000B9073A0C11241FBECFEFD8E0DEBF05
:1000D000CDBF11E0A0E0B1E0EAECF5E202C005908E
:1000E0000D92A43AB107D9F713E0A4EAB1E001C038
:1000F0001D92A13BB107E1F710E0C6ECD0E004C0CF
:100100002297FE010E94A812C23CD107C9F70E94A3
:10011000320F0C94E3120C940000CF93DF93BC01D8
:100120008230910510F462E070E0A091AF03B091CD
:10013000B003ED01E0E0F0E040E050E021C0888154
:1001400099818617970769F48A819B81309719F006
:100150009383828304C09093B0038093AF03FE0126
:1001600034C06817790738F44115510519F0841720
:10017000950708F4AC01FE018A819B819C01E9018D
:100180002097E9F641155105A9F1CA01861B970B85
:10019000049708F4BA01E0E0F0E02AC08D919C9148
:1001A000119784179507F9F46417750781F412966F
:1001B0008D919C911397309719F09383828304C09B
:1001C0009093B0038093AF03FD0132964CC0CA01F7
:1001D000861B970BFD01E80FF91F6193719302973E
:1001E0008D939C9340C0FD01828193819C01D90134
:1001F0001097A1F68091AD039091AE03892B41F445
:1002000080917201909173019093AE038093AD033E
:1002100040917401509175014115510541F44DB75C
:100220005EB78091700190917101481B590B20912C
:10023000AD033091AE03CA01821B930B861797075B
:1002400080F0AB014E5F5F4F8417950750F0420F6F
:10025000531F5093AE034093AD03F9016193719323
:1002600002C0E0E0F0E0CF01DF91CF910895CF939D
:10027000DF93009709F450C0EC0122971B821A8289
:10028000A091AF03B091B003109709F140E050E0A6
:10029000AC17BD0708F1BB83AA83FE012191319100
:1002A000E20FF31FAE17BF0779F48D919C91119760
:1002B000280F391F2E5F3F4F3983288312968D9167
:1002C0009C9113979B838A834115510571F4D093B8
:1002D000B003C093AF0320C012968D919C911397E9
:1002E000AD01009711F0DC01D3CFFA01D383C283B3
:1002F00021913191E20FF31FCE17DF0769F4888156
:100300009981280F391F2E5F3F4FFA0131832083D7
:100310008A819B8193838283DF91CF910895A0E0AE
:10032000B0E0E5E9F1E00C94AE126C01009729F41D
:10033000CB010E948D006C01C1C08EEF882E8FEF23
:10034000982E8C0C9D1C8601060F171F0815190589
:1003500008F4B2C0F401A081B181A617B707B8F0C4
:10036000A530B10508F4AAC0CD01049786179707F8
:1003700008F4A4C01297A61BB70BF801A193B19380
:10038000D4016D937C93CF010E94370197C07B010C
:10039000EA1AFB0AEEEFFFEFEE0EFF1E36016A0EC1
:1003A0007B1EC091AF03D091B00344245524AA24EE
:1003B000BB244AC0C615D705E1F5488159814E15C1
:1003C0005F05B8F1CA0104978E159F05B0F4129627
:1003D000A40FB51FF401B183A0832A813B8141148E
:1003E000510431F0D20113963C932E93129766C0BC
:1003F0003093B0032093AF0361C08A819B81F801E1
:1004000093838283425050404E195F095183408349
:100410004114510431F0D20113961C930E9312979C
:1004200004C01093B0030093AF03F40171836083A1
:1004300045C088819981A816B90608F45C012E018F
:100440008A819B819C01E901209709F0B3CF8091BB
:10045000AD039091AE0386159705E9F4A616B7068D
:10046000D0F420917401309175012115310541F4CA
:100470002DB73EB78091700190917101281B390B07
:1004800002171307C8F41093AE030093AD03D40111
:100490006D937C9313C0CB010E948D00EC010097FB
:1004A00059F0F40140815181B6010E948202C601D7
:1004B0000E9437016E0102C0CC24DD24C601CDB7F5
:1004C000DEB7E0E10C94CA12FC0188279927E89472
:1004D00021912032E9F3293010F02E30C8F32B326D
:1004E00041F02D3239F4689404C00E94C202820F98
:1004F000911D219120532A30C0F31EF490958195CF
:100500009F4F0895FB01DC0102C001900D92415004
:100510005040D8F70895FB01DC0101900D920020B6
:10052000E1F70895FB01DC014150504048F0019093
:100530000D920020C9F701C01D9241505040E0F7D4
:100540000895FB019F01E8944230C4F04532B4F4B1
:100550004A3029F497FB1EF4909581959F4F642FA4
:1005600077270E949212805D8A330CF0895D819317
:10057000CB010097A1F716F45DE251931082C901F7
:100580000C94CA027AE0979F902D879F802D910D41
:1005900011240895DC01FC01672F71917723E1F7A5
:1005A000329704C07C916D9370836291AE17BF0740
:1005B000C8F308950F931F93CF93DF93FC01738DBE
:1005C00076957170A685B7859585772329F08C91EE
:1005D000892309F454C004C08C91892309F04FC0C9
:1005E0008389948920E001972FEF8F3F9207D9F7F5
:1005F000C589D689A685B785158560E031E040E0DC
:1006000050E000E0CE01202F01972FEF8F3F92079F
:10061000D9F78C91812311F0632B03C0832F809530
:100620006823330F4F5F5F4F4830510559F7878973
:10063000908D20E001972FEF8F3F9207D9F771112E
:1006400060958091E6012091E70190E001968F731B
:10065000907030E08217930779F0E091E601F0E0C6
:10066000EA55FE4F60838091E60190E001968F731A
:1006700090708093E60103C0838D8160838FDF914A
:10068000CF911F910F9108951F920F920FB60F9265
:1006900011242F933F934F935F936F937F938F9387
:1006A0009F93AF93BF93EF93FF938091A401909199
:1006B000A501009711F00E94DA02FF91EF91BF911E
:1006C000AF919F918F917F916F915F914F913F91EA
:1006D0002F910F900FBE0F901F9018951F920F92A1
:1006E0000FB60F9211242F933F934F935F936F9305
:1006F0007F938F939F93AF93BF93EF93FF938091DB
:10070000A4019091A501009711F00E94DA02FF91D7
:10071000EF91BF91AF919F918F917F916F915F9179
:100720004F913F912F910F900FBE0F901F901895F2
:100730001F920F920FB60F9211242F933F934F9356
:100740005F936F937F938F939F93AF93BF93EF9339
:10075000FF938091A4019091A501009711F00E9450
:10076000DA02FF91EF91BF91AF919F918F917F91AD
:100770006F915F914F913F912F910F900FBE0F900E
:100780001F901895FC018091E8018C3090F48083D3
:100790008F5F8093E801815090E0FC01EE0FFF1F16
:1007A000E80FF91FE751FE4F88EB9BE092838183AE
:1007B00008958FEF80830895FC0120812C3008F08C
:1007C00041C08181992787FD909548E850E0481BFA
:1007D000590B440F551F440F551F6417750784F0BC
:1007E0008281992787FD909548E552E0481B590B77
:1007F000440F551F440F551F641775070CF4AB01C8
:1008000042505040CA01AA2797FDA095BA2F74E024
:10081000880F991FAA1FBB1F7A95D1F763E0B69581
:10082000A795979587956A95D1F74FB7F89430E0DB
:10083000F901EE0FFF1FE20FF31FE751FE4F928306
:1008400081834FBF0895AF92BF92CF92DF92EF9214
:10085000FF920F931F93CF93DF93EC019B0182E0F4
:10086000603278070CF048C077FF03C020E030E02A
:1008700005C0653B710514F024EB30E000D000D0DA
:10088000B901882777FD8095982F2981332727FD87
:100890003095E8E8AE2EB12CA21AB30AAA0CBB1C04
:1008A000AA0CBB1CCC24B7FCC094DC2CEA81FF272B
:1008B000E7FDF09528E532E02E1B3F0B220F331F9A
:1008C000220F331F442737FD4095542FEDB7FEB755
:1008D000218332834383548320E030E040E050E0C2
:1008E00004EBE02EF12C012D112D0E94780D9B01BF
:1008F0000F900F900F900F90CE01B9010E94DC0372
:10090000DF91CF911F910F91FF90EF90DF90CF90EB
:10091000BF90AF900895CF92DF92EF92FF921F9316
:10092000CF93DF93EC01162F7A01690188818C3017
:1009300008F064C0862F61E00E949510888190E0E5
:10094000FC01EE0FFF1FE80FF91FE751FE4F1F7369
:100950008081807C812B808380E292E08E199F09C8
:1009600064E070E00E944212698380E699E08C198D
:100970009D0964E070E00E9442126A83A8818A2F78
:100980006CE00E943612682F70E0AB01440F551FD7
:10099000460F571F440F551F440F551F20E030E0EE
:1009A000C901840F951FFC01EE0FFF1FE80FF91F0F
:1009B000E751FE4F808186FD15C02F5F3F4F2C30E1
:1009C000310571F724C01092800082E0809381008D
:1009D0001092850010928400B19A80916F0082601D
:1009E00080936F008A2F90E0FC01EE0FFF1FE80F4D
:1009F000F91FE751FE4F8081806480838881DF91F9
:100A0000CF911F91FF90EF90DF90CF900895672BCB
:100A1000D1F2E8CF40E252E020E639E00E948B04B8
:100A200008951F920F920FB60F9211242F933F93A8
:100A30004F935F936F937F938F939F93AF93BF93E6
:100A4000EF93FF9380910D0287FF05C01092850000
:100A5000109284002BC020910D02332727FD309582
:100A60008091E80190E02817390704F580910D0284
:100A7000992787FD9095FC01EE0FFF1FE80FF91FE6
:100A8000E751FE4F808186FF11C080910D029927AA
:100A900087FD9095FC01EE0FFF1FE80FF91FE7514E
:100AA000FE4F80818F7360E00E94D41080910D0210
:100AB0008F5F80930D0220910D02332727FD309523
:100AC0008091E80190E0281739070CF04EC0809122
:100AD0000D028C300CF049C02091840030918500CB
:100AE00080910D02992787FD9095FC01EE0FFF1F65
:100AF000E80FF91FE751FE4F81819281280F391FBE
:100B0000309389002093880080910D02992787FDFA
:100B10009095FC01EE0FFF1FE80FF91FE751FE4F04
:100B2000808186FF2BC080910D02992787FD9095CB
:100B3000FC01EE0FFF1FE80FF91FE751FE4F808108
:100B40008F7361E00E94D41019C080E49CE905C055
:100B50008091840090918500049690938900809301
:100B600088008FEF80930D0209C0809184009091DE
:100B70008500049680549C4940F3EACFFF91EF91A1
:100B8000BF91AF919F918F917F916F915F914F91A5
:100B90003F912F910F900FBE0F901F901895FC0161
:100BA0001382128280E991E091838083E55BFF4F9D
:100BB0001082EB54F040DF01AE51BF4F11961C92F2
:100BC0001E92EC51FF4F8EE190E091838083EA59B1
:100BD000F04082E18083329783E180838BE18293CE
:100BE00032968BE3808334971182108237968D91F1
:100BF0009C91119781939193EA17FB07C1F7089590
:100C0000E42FF0E03A97EE0FFF1FE80FF91F718312
:100C100060830895DF92EF92FF920F931F938C01F0
:100C2000D62E85E8E82E83E0F82E065B1F4FC7011D
:100C3000F80160810E94B40CC7016D2D4AE050E0BC
:100C40000E94630D02501040C701F80160810E94AC
:100C5000B40C1F910F91FF90EF90DF90089585E8FD
:100C600093E04AE050E00E94630D0895CF92DF9236
:100C7000EF92FF920F931F938C016B0195E8E92E81
:100C800093E0F92E065B1F4FC701F80160810E94B7
:100C9000B40CC701B6010E94750D02501040C70187
:100CA000F80160810E94B40C1F910F91FF90EF90AA
:100CB000DF90CF900895CF92DF92FF920F931F9312
:100CC000CF93DF93EC01FD80EF2DF0E0EB37F105E2
:100CD000D4F53A97EE0FFF1FE80FF91F008111813D
:100CE0000115110569F18C818130E9F1FE01EB5BA1
:100CF000FF4F81E090E091838083DE0141E050E08E
:100D0000BE01675B7F4F6F0115C016962C91169739
:100D100030E0FB018081992787FD909528173907DE
:100D200031F4F601808191810196918380834F5F38
:100D30005F4F11968C8190E04817590734F33FC0FC
:100D400060E071E047C0C55BDF4F8881CB54D04085
:100D50008823E9F1CE51DF4F08811981C25ED0406E
:100D60008C81813019F460E070E02DC0FE01EB5BF6
:100D7000FF4F81E090E091838083DE0141E050E00D
:100D8000BE01675B7F4F6F0115C016962C911697B9
:100D900030E0FB018081992787FD9095281739075E
:100DA00031F4F601808191810196918380834F5FB8
:100DB0005F4F11968C8190E04817590734F3CB5B55
:100DC000DF4F688179818F2DF801099509C0CE0127
:100DD00066E171E00E943606CE016D810E940A062E
:100DE000DF91CF911F910F91FF90DF90CF900895E9
:100DF000EF92FF920F931F93DF93CF93CDB7DEB7A0
:100E0000AC01EDB6FEB6FC0184812DB73EB7281BC0
:100E100031090FB6F8943EBF0FBE2DBF6DB77EB738
:100E20006F5F7F4FDA018B0121E030E008C015963B
:100E30008C911597F80181938F012F5F3F4FFA0135
:100E40008481E82FF0E011962E173F0784F3E60F18
:100E5000F71F31971082CB010E9464020FB6F894FD
:100E6000FEBE0FBEEDBECF91DF911F910F91FF909F
:100E7000EF900895AF92BF92CF92DF92EF92FF92E0
:100E80000F931F93CF93DF93EC0137E4A32EB12C84
:100E9000A80EB91E28E4C22ED12CC80ED91E8C0172
:100EA0000B5B1F4F94EEE92EF12CEC0EFD1E37C0AC
:100EB00085E893E00E94C60B482F282F30E0F5010B
:100EC0008081992787FD90952817390741F4FE0105
:100ED00080E015828F5F31968034D9F712C0F60119
:100EE0008081992787FD90952817390779F4CE01DD
:100EF0000E945B06FE0180E015828F5F3196803490
:100F0000D9F71C82F8011182108209C08C818034CB
:100F100020F5FE01E80FF11D45838F5F8C8385E886
:100F200093E00E94950B1816190614F285E893E0D9
:100F30000E94950B1816190694F3F7018081918190
:100F4000009711F00E94F00F85E893E00E94950B46
:100F50001816190624F381E001C080E0DF91CF91DB
:100F60001F910F91FF90EF90DF90CF90BF90AF90C7
:100F700008958EE092E00E94CF0584EF92E00E94F7
:100F8000C2030895CF92DF92EF92FF920F931F93C7
:100F9000DF93CF93CDB7DEB72E970FB6F894DEBFB1
:100FA0000FBECDBF9C017B01CDB6DEB68E01085FC2
:100FB0001F4FC801B9010E941B0FC801B7010E9451
:100FC000940EBC017E010894E11CF11CC7010E9433
:100FD000100FC8010E942C0F4D815E814F5F5F4F43
:100FE0008DB79EB7841B950B0FB6F8949EBF0FBEAE
:100FF0008DBF0DB71EB70F5F1F4FC701B80120E0AF
:1010000030E00E94C10D8EE092E0B8010E943606E9
:10101000C7010E94260F0FB6F894DEBE0FBECDBEEC
:101020002E960FB6F894DEBF0FBECDBFCF91DF91E5
:101030001F910F91FF90EF90DF90CF9008950F9345
:101040001F93062F682F772767FD70958091760193
:101050000E94351080917A0161E00E94D41011271E
:1010600007FD109580917801B8010E94351080919C
:101070007C0160E00E94D4101F910F910895CF93DE
:10108000DF938EE092E00E94F806EC0124E0CC0FA2
:10109000DD1F2A95E1F7C81BD90B1C161D065CF550
:1010A0008091FB029091FC02892BF9F460918A01F6
:1010B000862F0E941F080E94890F9E01442737FD3A
:1010C0004095542F260F371F481F591F2093F702B2
:1010D0003093F8024093F9025093FA0281E090E0D5
:1010E0009093FC028093FB0206C085E893E06BE2DC
:1010F00071E00E94750DDF91CF9108950F931F93BA
:10110000062F682F772767FD7095809176010E94E2
:10111000351080917A0160E00E94D410112707FDFC
:10112000109580917801B8010E94351080917C0162
:1011300061E00E94D4101F910F910895CF93DF9327
:101140008EE092E00E94F806EC0134E0CC0FDD1F47
:101150003A95E1F7C81BD90B1C161D065CF580916A
:10116000FB029091FC02892BF9F460918A01862F91
:101170000E947E080E94890F9E01442737FD4095FA
:10118000542F260F371F481F591F2093F702309303
:10119000F8024093F9025093FA0281E090E09093B4
:1011A000FC028093FB0206C085E893E06BE271E0ED
:1011B0000E94750DDF91CF9108950F931F93062F15
:1011C000682F772767FD7095809176010E94351012
:1011D00080917A0161E00E94D410112707FD1095DB
:1011E00080917801B8010E94351080917C0161E006
:1011F0000E94D4101F910F9108958EE092E00E94FA
:10120000F806682F0E94DD0808950F931F93062F9C
:10121000682F772767FD7095809176010E943510C1
:1012200080917A0160E00E94D410112707FD10958B
:1012300080917801B8010E94351080917C0160E0B6
:101240000E94D4101F910F9108958EE092E00E94A9
:10125000F806682F0E94050908958091760160E0E4
:101260000E94D4108091780160E00E94D41008950B
:10127000CF93DF938EE092E00E94F806EC011816FF
:1012800019061CF00E942D0926C08091FB02909146
:10129000FC02892BD1F40E94890F9E01442737FD5F
:1012A0004095542F260F371F481F591F2093F702D0
:1012B0003093F8024093F9025093FA0281E090E0F3
:1012C0009093FC028093FB0206C085E893E06BE2FA
:1012D00071E00E94750DDF91CF91089580917E019C
:1012E0000E94281108958091820160E020E432E498
:1012F0004FE050E00E947B11603523EC720720E044
:10130000820720E0920749F485E893E063E571E005
:101310000E94750D2FEF3FEF06C022E330E040E062
:1013200050E00E945512C9010895AF92BF92CF922A
:10133000DF92EF92FF920F931F93DF93CF93CDB77E
:10134000DEB727970FB6F894DEBF0FBECDBF0E9461
:10135000890F5B016C018EE092E00E943A070E94C7
:1013600073098C017E010894E11CF11CC7016BE537
:1013700071E00E94C60EC701B8010E94C2070E9418
:101380006E098C01C70166E671E00E94E00EC7019C
:10139000B8010E94C2078091FB029091FC02009765
:1013A00061F10197F1F4E090F702F090F8020091FA
:1013B000F9021091FA020E94890FE616F706080753
:1013C0001907D8F40E942D091092F7021092F80222
:1013D0001092F9021092FA021092FC021092FB0293
:1013E0000CC01092FC021092FB021092F7021092B5
:1013F000F8021092F9021092FA0285E893E00E9436
:10140000BC0C0E94890FA6019501261B370B480BC7
:10141000590B2C593F4F4F4F5F4FDA01C9010197CC
:10142000A109B10983369105A105B10518F4CA01D6
:10143000B90109C0253631054105510534F064E68E
:1014400070E080E090E00E94970FCE0101960E942C
:10145000260F27960FB6F894DEBF0FBECDBFCF91F3
:10146000DF911F910F91FF90EF90DF90CF90BF9091
:10147000AF9008950F931F9340918401509185017F
:10148000609186017091870185E893E00E940F0BBF
:1014900080917E0160E00E94951085E061E00E94ED
:1014A000951086E061E00E94951087E061E00E945F
:1014B000951004EF12E06091800170918101C801E4
:1014C0000E940A056091880170918901C8010E94FB
:1014D00023040EE012E0C80165E279E041E40E94D5
:1014E0000006C8016DEF78E042E40E940006C801E2
:1014F00068E379E043E50E940006C8016EE978E000
:101500004CE40E940006C8016FE378E042E50E94C7
:1015100000061F910F91089508951F920F920FB624
:101520000F9211242F933F934F938F939F93EF9399
:10153000FF934091C60020913D0330913E032F5F01
:101540003F4F2F73307080913F03909140032817D5
:10155000390759F0E0913D03F0913E03E350FD4F10
:10156000408330933E0320933D03FF91EF919F9181
:101570008F914F913F912F910F900FBE0F901F9021
:101580001895E0919103F0919203E05CFF4F8191F7
:10159000919120813181821B930B8F739070892BE5
:1015A00011F00E948C0A08951F920F920FB60F92AD
:1015B00011242F933F938F939F93EF93FF93209149
:1015C00081033091820380918303909184032817D3
:1015D000390731F48091C1008F7D8093C10014C020
:1015E000E0918303F0918403EF5BFC4F20818091B5
:1015F00083039091840301968F739070909384037A
:10160000809383032093C600FF91EF919F918F9168
:101610003F912F910F900FBE0F901F901895AF9292
:10162000BF92DF92EF92FF920F931F93CF93DF93BE
:10163000EC017A018B01DD24403081EE580780E017
:10164000680780E0780711F0DD24D39491E0A92E9B
:10165000B12CEC89FD89DD2069F0C5010E8C02C03A
:10166000880F991F0A94E2F7808360E079E08DE3A8
:1016700090E005C0108260E874E88EE190E0A80177
:1016800097010E94551221503040404050405695DD
:1016900047953795279580E12030380720F0DD20E9
:1016A00011F0DD24D6CFE889F9893083EA89FB89F6
:1016B0002083EE89FF89408121E030E0C9010A8C56
:1016C00002C0880F991F0A94E2F7482B4083EE89E5
:1016D000FF894081C9010B8C02C0880F991F0A94B1
:1016E000E2F7482B4083EE89FF894081C9010C8CC9
:1016F00002C0880F991F0A94E2F7482B4083EE89B5
:10170000FF8980810D8C02C0220F331F0A94E2F7FB
:10171000209528232083DF91CF911F910F91FF9077
:10172000EF90DF90BF90AF900895DC011C96ED9193
:10173000FC911D97E05CFF4F219131918081918157
:10174000281B390B2F733070C9010895DC011C96DA
:10175000ED91FC911D97E05CFF4F20813181E054B9
:10176000F040DF01AE5BBF4F8D919C911197281720
:10177000390719F42FEF3FEF07C08D919C91E80FC7
:10178000F91F8081282F30E0C9010895DC011C96E3
:10179000ED91FC911D97E05CFF4F20813181E05479
:1017A000F040DF01AE5BBF4F8D919C9111972817E0
:1017B000390719F42FEF3FEF10C08D919C911197CD
:1017C000E80FF91F20818D919C91119701968F73DD
:1017D000907011969C938E9330E0C9010895FC019E
:1017E00086859785DC01A05CBF4FFC01EE5BFF4F57
:1017F0002D913C9111978081918128173907C1F76C
:101800000895CF93DF93EC01EE85FF85E05CFF4FF9
:1018100020813181E054F0402F5F3F4F2F733070B3
:10182000DF01AE5BBF4F8D919C911197281739074F
:10183000D1F3E05CFF4F80819181E054F040E80FEC
:10184000F91F6083EE85FF85E05CFF4F31832083C5
:10185000EE89FF89208181E090E00D8C02C0880F25
:10186000991F0A94E2F7282B208381E090E0DF9112
:10187000CF910895109288031092870388EE93E029
:10188000A0E0B0E08093890390938A03A0938B0338
:10189000B0938C0388E991E090938603809385034D
:1018A0008DEF92E0909392038093910381E493E013
:1018B000909394038093930385EC90E09093960328
:1018C0008093950384EC90E0909398038093970322
:1018D00080EC90E090939A038093990381EC90E0E0
:1018E00090939C0380939B0386EC90E090939E03DF
:1018F00080939D0384E080939F0383E08093A00303
:1019000087E08093A10385E08093A20381E0809328
:10191000A3030895CF92DF92EF92FF920F931F934C
:10192000CF93DF937C016B018A01C0E0D0E00FC050
:10193000D6016D916D01D701ED91FC910190F0817F
:10194000E02DC7010995C80FD91F0150104001159E
:10195000110571F7CE01DF91CF911F910F91FF908B
:10196000EF90DF90CF900895DC01ED91FC91019014
:10197000F081E02D09950895EF92FF920F931F9348
:101980008C01DC01ED91FC910190F081E02D6DE086
:1019900009957C01D801ED91FC910190F081E02D39
:1019A000C8016AE009959C012E0D3F1DC9011F91D8
:1019B0000F91FF90EF900895CF93DF93DB010D908F
:1019C0000020E9F71197A61BB70BEC01E881F9811C
:1019D0000280F381E02DAD010995DF91CF9108954B
:1019E0004F925F927F928F929F92AF92BF92CF92CF
:1019F000DF92EF92FF920F931F93DF93CF93CDB7B8
:101A0000DEB7A1970FB6F894DEBF0FBECDBF2C0195
:101A1000742ECB01223008F42AE019A231E2C32E41
:101A2000D12CCC0EDD1E822E9924AA24BB24672D36
:101A3000752FA50194010E94551279018A01C801F0
:101A4000B701A50194010E941712472D461B089467
:101A5000C108D1084A3014F4405D01C0495CF60168
:101A60004083E114F1040105110521F07E2C5F2D66
:101A7000C801DDCFC201B6010E94DC0CA1960FB6F1
:101A8000F894DEBF0FBECDBFCF91DF911F910F91B4
:101A9000FF90EF90DF90CF90BF90AF909F908F908E
:101AA0007F905F904F900895DC012115310541F43E
:101AB000ED91FC910190F081E02D642F099508953E
:101AC0000E94F00C0895EF92FF920F931F939A01DA
:101AD000E62EFF2400E010E0B801A7010E94540D9B
:101AE0001F910F91FF90EF9008950E94DC0C0895D4
:101AF0002F923F924F925F926F927F928F929F921E
:101B0000AF92BF92CF92DF92EF92FF920F931F930B
:101B1000DF93CF93CDB7DEB73B014C0119012A010A
:101B20006D897E898F89988D6A197B098C099D0939
:101B3000621A730A840A950AA40193010E9417127B
:101B4000E218F30804091509A80197010E94771209
:101B50002A0D3B1D4C1D5D1DB901CA01CF91DF91BE
:101B60001F910F91FF90EF90DF90CF90BF90AF90BB
:101B70009F908F907F906F905F904F903F902F90AD
:101B800008950F931F93CF93DF93FC018B014115B1
:101B90005105F9F061157105E1F0848195812817EF
:101BA000390718F0FB01108214C041505040EC017D
:101BB000C21BD30B4C175D0708F4EA0160817181E9
:101BC000620F731FC801AE010E949202C00FD11FA5
:101BD0001882DF91CF911F910F9108950F931F935A
:101BE000CF93DF93EC018B016F5F7F4F88819981E9
:101BF0000E948F01009711F480E005C099838883CB
:101C00001B830A8381E0DF91CF911F910F9108958B
:101C1000CF93DF93EC0188819981892B29F08A8108
:101C20009B818617970760F4CE010E94EE0D8823F2
:101C300041F08C819D81892B19F4E881F981108212
:101C400081E0DF91CF910895EF92FF920F931F9360
:101C5000CF93DF93EC017B016C817D81E114F10472
:101C6000C1F04115510599F08A01060F171FB801FF
:101C70000E94080E882369F0888199812C813D811A
:101C8000820F931FB7010E948B021D830C8381E09A
:101C900001C080E0DF91CF911F910F91FF90EF90F5
:101CA0000895EF92FF920F931F93DF93CF93CDB7D9
:101CB000DEB727970FB6F894DEBF0FBECDBF7C010D
:101CC000CB018E010F5F1F4FB8014AE050E00E9428
:101CD000A102F80101900020E9F73197E01BF10B18
:101CE000C701B801AF010E94240E27960FB6F894E1
:101CF000DEBF0FBECDBFCF91DF911F910F91FF903F
:101D0000EF900895CF93DF93EC018881998100973C
:101D100011F00E943701198218821D821C821B82D9
:101D20001A82DF91CF9108950F931F93182F092FD7
:101D30000E94510E882321F4812F902F0E94820E41
:101D4000812F902F1F910F910895EF92FF920F9383
:101D50001F93CF93DF93EC017B018A01BA010E94AC
:101D6000080E882321F4CE010E94820E07C01D8335
:101D70000C8388819981B7010E948B02CE01DF918B
:101D8000CF911F910F91FF90EF900895CF93DF9324
:101D9000EC01198218821B821A821D821C821E820B
:101DA0006115710551F0DB010D900020E9F71197E5
:101DB000A61BB70BAD010E94A50EDF91CF91089530
:101DC0000F931F93182F092F6115710559F0DB012F
:101DD0000D900020E9F71197A61BB70BAD010E94EB
:101DE000A50E02C00E94820E812F902F1F910F918D
:101DF0000895CF93DF93EC01FB018617970761F0FD
:101E0000608171816115710529F0448155810E94BD
:101E1000A50E02C00E94820ECE01DF91CF910895DF
:101E2000FC011182108213821282158214821682A2
:101E30000E94F90E0895FC01118210821382128211
:101E40001582148216820E94F90E0895FC01808189
:101E500091810E9437010895FC01808191810E9447
:101E600037010895CF93DF930E94FA0F0E943A0A38
:101E7000C1ECDAE00E9495092097E1F30E94C10AC3
:101E8000F9CF1F920F920FB60F9211242F933F9309
:101E90008F939F93AF93BF938091A8039091A903D1
:101EA000A091AA03B091AB033091AC030196A11DA0
:101EB000B11D232F2D5F2D3720F02D570196A11D29
:101EC000B11D2093AC038093A8039093A903A09322
:101ED000AA03B093AB038091A4039091A503A091B2
:101EE000A603B091A7030196A11DB11D8093A40381
:101EF0009093A503A093A603B093A703BF91AF91BE
:101F00009F918F913F912F910F900FBE0F901F9037
:101F100018958FB7F8942091A8033091A9034091A8
:101F2000AA035091AB038FBFB901CA0108959B0169
:101F3000AC017FB7F8948091A4039091A503A09180
:101F4000A603B091A70366B5A89B05C06F3F19F023
:101F50000196A11DB11D7FBFBA2FA92F982F8827E9
:101F6000860F911DA11DB11D62E0880F991FAA1F48
:101F7000BB1F6A95D1F7BC012DC0FFB7F8948091C3
:101F8000A4039091A503A091A603B091A703E6B581
:101F9000A89B05C0EF3F19F00196A11DB11DFFBF21
:101FA000BA2FA92F982F88278E0F911DA11DB11D23
:101FB000E2E0880F991FAA1FBB1FEA95D1F7861B85
:101FC000970B885E9340C8F221503040404050400B
:101FD00068517C4F211531054105510571F6089571
:101FE000019739F0880F991F880F991F0297019761
:101FF000F1F70895789484B5826084BD84B58160DA
:1020000084BD85B5826085BD85B5816085BDEEE600
:10201000F0E0808181608083E1E8F0E010828081DF
:1020200082608083808181608083E0E8F0E080814D
:1020300081608083E1EBF0E0808184608083E0EB6D
:10204000F0E0808181608083EAE7F0E08081846055
:1020500080838081826080838081816080838081B1
:10206000806880831092C10008951F93CF93DF93FF
:10207000182FEB0161E00E949510209709F44AC0E7
:10208000CF3FD10509F449C0E12FF0E0E255FF4F01
:1020900084918330C1F0843028F4813051F0823053
:1020A000B1F50CC0863019F1873049F1843079F5EB
:1020B00014C084B5806884BDC7BD33C084B5806258
:1020C00084BDC8BD2EC08091800080688093800050
:1020D000D0938900C093880024C0809180008062E2
:1020E00080938000D0938B00C0938A001AC08091A7
:1020F000B00080688093B000C093B30012C080919C
:10210000B00080628093B000C093B4000AC0C038B1
:10211000D1051CF4812F60E002C0812F61E00E9494
:10212000D410DF91CF911F910895CF93DF93482F63
:1021300050E0CA0186569F4FFC0134914A575F4FC9
:10214000FA018491882369F190E0880F991FFC01BE
:10215000E859FF4FA591B491FC01EE58FF4FC5918E
:10216000D491662351F42FB7F8948C91932F9095C6
:1021700089238C93888189230BC0623061F42FB747
:10218000F8948C91932F909589238C938881832B3D
:1021900088832FBF06C09FB7F8948C91832B8C93B4
:1021A0009FBFDF91CF910895482F50E0CA0182551B
:1021B0009F4FFC012491CA0186569F4FFC019491C8
:1021C0004A575F4FFA013491332309F440C0222368
:1021D00051F1233071F0243028F42130A1F0223065
:1021E00011F514C02630B1F02730C1F02430D9F4F5
:1021F00004C0809180008F7703C0809180008F7D24
:102200008093800010C084B58F7702C084B58F7D25
:1022100084BD09C08091B0008F7703C08091B00069
:102220008F7D8093B000E32FF0E0EE0FFF1FEE589C
:10223000FF4FA591B4912FB7F894662321F48C91A8
:102240009095892302C08C91892B8C932FBF089580
:10225000682F70E0CB0182559F4FFC012491CB0188
:1022600086569F4FFC0144916A577F4FFB01949122
:10227000992319F420E030E03CC0222351F12330AF
:1022800071F0243028F42130A1F0223011F514C06F
:102290002630B1F02730C1F02430D9F404C0809149
:1022A00080008F7703C0809180008F7D80938000B5
:1022B00010C084B58F7702C084B58F7D84BD09C0FE
:1022C0008091B0008F7703C08091B0008F7D8093A4
:1022D000B000892F90E0880F991F84589F4FFC0110
:1022E000A591B4918C9120E030E0842311F021E09D
:1022F00030E0C90108958F929F92AF92BF92CF9222
:10230000DF92EF92FF920F931F93CF93DF93A82F4B
:10231000B0E0CD0186569F4FFC018490AA57BF4F75
:10232000FD018491662311F4992401C0982C6FEF6C
:10233000A62E6FEFB62E6FEFC62E6FE0D62EA2221E
:10234000B322C422D522682F70E0660F771F64582D
:102350007F4FEE24FF248701FB01A591B4910BC0B0
:10236000EA14FB040C051D0509F44EC00894E11C99
:10237000F11C011D111D8C918821891589F30CC058
:10238000EA14FB040C051D0509F43EC00894E11C89
:10239000F11C011D111D03C0FB01A591B4918C918D
:1023A0008821891569F720E030E040E050E0FB012A
:1023B000C591D4910FC0DA01C9018E0D9F1DA01FD8
:1023C000B11F8A159B05AC05BD05F1F02F5F3F4F8E
:1023D0004F4F5F4F88818821891569F3CA01B90180
:1023E00025E130E040E050E00E9417129B01AC0173
:1023F000205F3F4F4F4F5F4F84E05695479537958D
:1024000027958A95D1F704C020E030E040E050E005
:10241000B901CA01DF91CF911F910F91FF90EF9009
:10242000DF90CF90BF90AF909F908F900895629F64
:10243000D001739FF001829FE00DF11D649FE00DBC
:10244000F11D929FF00D839FF00D749FF00D659F1D
:10245000F00D9927729FB00DE11DF91F639FB00D1C
:10246000E11DF91FBD01CF0111240895991B79E0E9
:1024700004C0991F961708F0961B881F7A95C9F714
:102480008095089597FB092E07260AD077FD04D082
:1024900049D006D000201AF4709561957F4F0895B9
:1024A000F6F7909581959F4F0895A1E21A2EAA1BE9
:1024B000BB1BFD010DC0AA1FBB1FEE1FFF1FA217F4
:1024C000B307E407F50720F0A21BB30BE40BF50BF1
:1024D000661F771F881F991F1A9469F7609570957A
:1024E000809590959B01AC01BD01CF01089597FBAC
:1024F000092E05260ED057FD04D0D7DF0AD0001CC8
:1025000038F450954095309521953F4F4F4F5F4F90
:102510000895F6F790958095709561957F4F8F4F50
:102520009F4F0895AA1BBB1B51E107C0AA1FBB1FE9
:10253000A617B70710F0A61BB70B881F991F5A954F
:10254000A9F780959095BC01CD010895EE0FFF1F6E
:102550000590F491E02D09942F923F924F925F9253
:102560006F927F928F929F92AF92BF92CF92DF92A3
:10257000EF92FF920F931F93CF93DF93CDB7DEB708
:10258000CA1BDB0B0FB6F894DEBF0FBECDBF09949C
:102590002A88398848885F846E847D848C849B84F3
:1025A000AA84B984C884DF80EE80FD800C811B8101
:1025B000AA81B981CE0FD11D0FB6F894DEBF0FBE30
:0A25C000CDBFED010895F894FFCFA0
:1025CA00466C6167206E6F74207265676973746503
:1025DA007265643A2000466C6167206F7574206FDB
:1025EA006620626F756E64733A20004D6F726520C3
:1025FA007468616E206F6E652074696D656420650C
:10260A0076656E74206E6F7420706F737369626C76
:10261A00652E00496E76616C69640046524F4E54CD
:10262A0050524F583A004241434B50524F583A0089
:10263A002000B103000005000600040007000B009B
:10264A000A00030000C201005F00960000000000BB
:10265A002F068A0C00000000010C8A0C950BC60B91
:04266A00A60BEF0BC1
:00000001FF
